:020000040800F2
:10000000E01D002019020008210200082302000858
:10001000250200082702000829020008000000004D
:100020000000000000000000000000008D0100083A
:100030002D02000800000000C1010008C3210008D3
:1000400033020008330200083302000833020008BC
:1000500033020008330200083302000833020008AC
:10006000330200083302000833020008330200089C
:10007000330200083302000833020008330200088C
:100080003302000833020008FF0D000833020008A5
:10009000330200083302000833020008330200086C
:1000A000330200083302000833020008330200085C
:1000B000330200083302000833020008330200084C
:1000C000330200083302000833020008330200083C
:1000D0003302000833020008610E000833020008F2
:1000E00033020008330200083302000800F002F86F
:1000F00000F03CF80AA090E8000C82448344AAF186
:100100000107DA4501D100F031F8AFF2090EBAE883
:100110000F0013F0010F18BFFB1A43F0010318473B
:10012000702E0000902E0000103A24BF78C878C1CD
:10013000FAD8520724BF30C830C144BF04680C60ED
:10014000704700000023002400250026103A28BF35
:1001500078C1FBD8520728BF30C148BF0B60704739
:100160001FB502F034FC1FBD10B510BD02F0F5FB49
:100170001146FFF7F5FF00F076FD02F013FC03B423
:10018000FFF7F2FF03BC02F01BFC00001A4B1968DA
:100190000868B0E8F00F80F309884FF0000080F3A2
:1001A00011884EF00D0E70470000000003480068F3
:1001B000006880F3088862B600DF00BF08ED00E049
:1001C000EFF309800C4B1A6820E9F00F106008B5B6
:1001D0004FF0BF0080F3118801F0E9FC4FF0000000
:1001E00080F31188BDE8084019680868B0E8F00F8E
:1001F00080F30988704700BF4800002001B44FF029
:10020000BF0080F3118801BC704701B44FF00000BB
:1002100080F3118801BC70470948804709480047AE
:10022000FEE7FEE7FEE7FEE7FEE7FEE7FEE7FEE7A6
:10023000FEE7FEE704480549054A064B7047000003
:10024000ED020008ED000008E0170020E01D00208E
:10025000E0190020E019002000210020584A12680F
:1002600042F48032564B1A6000BF554A126802F4BD
:100270000030491C10B9B1F5A06FF6D1504A126890
:1002800012F4003F01D0012000E00020012828D115
:100290004C4A126842F010024A4B1A601A46126821
:1002A00022F003021A601A4612681A60444A526821
:1002B000434B5A601A4652685A601A4652685A604E
:1002C0001A46526822F003025A601A46526842F0F7
:1002D00001025A6000BF3A4A526802F00C02042A36
:1002E000F9D1704710B5FFF7B7FF10BD10B534480E
:1002F000006840F001003249086008464068324911
:1003000008402F49486008460068304908402C4999
:1003100008600846006820F48020086008464068AD
:1003200020F4FE0048604FF41F008860FFF7DAFFFA
:1003300010BD10B5002100200022214B5B6803F0A6
:100340000C0121B1042906D0082928D107E0204B4F
:10035000204C236027E01E4B1E4C236023E0184BEB
:100360005B6803F47010164B5B6803F48032022361
:1003700003EB904022B9184B4343164C23600DE029
:100380000F4B5B6813F4003F04D0134B4343114CF5
:10039000236003E00E4B43430E4C236003E00C4B01
:1003A0000C4C236000BF00BF054B5B68C3F3031315
:1003B0000A4CE15C074B1B68CB40064C236010BD28
:1003C00000100240002002400000FFF8FFFFF6FE90
:1003D00000127A000000002000093D000400002007
:1003E00010B5002807DA0A07140EFE4A00F00F03C2
:1003F0001B1FD45403E00A07130EFB4A135410BD0D
:10040000002104E010F8012BF84B5A54491C0278E3
:10041000002AF7D1704710B54FF47A7290FBF2F2D0
:1004200002F00F02F24B9A5C0A704FF47A7290FB62
:10043000F2F302FB1302642392FBF3F202F00F02C9
:10044000EB4B9A5C4A704FF47A7290FBF2F302FB2A
:100450001302642392FBF3F403FB14220A2392FB9E
:10046000F3F202F00F02E24B9A5C8A704FF47A7258
:1004700090FBF2F302FB1302642392FBF3F403FB01
:1004800014220A2392FBF3F403FB142202F00F025E
:10049000D74B9A5CCA7010BD10B5642290FBF2F283
:1004A00002F00F02D24B9A5C0A70642290FBF2F3C6
:1004B00002FB13020A2392FBF3F202F00F02CC4B71
:1004C0009A5C4A70642290FBF2F302FB13020A2347
:1004D00092FBF3F403FB142202F00F02C44B9A5C6C
:1004E0008A7010BDC34905E001E000BF491E002924
:1004F000FBD1401E0028F7D17047BF48406820F06C
:100500000300BD49486008464068486008460068E6
:1005100040F4803008600846006820F08070086071
:1005200000BFB548006810F4003FFAD0B348006837
:1005300040F01000B14908600846006820F0030050
:1005400008600846006840F002000860AA48406859
:1005500040F48060A84948600846406820F4803034
:1005600048600846406820F400304860084640680B
:1005700020F4701048600846406840F488104860D5
:100580000846006840F08070086000BF9A48006824
:1005900010F0007FFAD09848406820F00300964998
:1005A00048600846406840F00200486000BF92483A
:1005B000406810F0010FFAD18F48806940F00C00BC
:1005C0008D4988610846806900F00800082804D039
:1005D0000846806940F0080088618948006820F476
:1005E0007060874908600846006840F40070086041
:1005F0008148806900F00800082805D07E4880699D
:1006000040F008007C4988617D48006820F4704013
:100610007B4908600846006840F40050086076484E
:10062000806900F00800082805D07348806940F010
:100630000800714988617248006820F07040704974
:1006400008600846006840F0104008606A48806909
:1006500000F00800082805D06748806940F00800CD
:10066000654988616648006820F0706064490860E8
:100670000846006840F00060086061480C3000687F
:1006800040F480405E490C3108605B48806900F0AE
:100690000800082805D05848806940F008005649ED
:1006A00088615748006820F4700055490860084682
:1006B000006840F4100008604F48806900F00800AE
:1006C000082805D04C48806940F008004A498861F4
:1006D0004B48006820F470204949086008460068CB
:1006E00040F4102008604448C06940F4804042490A
:1006F000C8614448008820F0380042490880084614
:10070000008840F0300008800846008840F004006F
:100710000880081D008840F00400091D0880081F9B
:10072000008840F04000091F08803348806900F0CD
:100730000800082805D03048806940F008002E499C
:1007400088612F48001F006820F070402C49091F65
:1007500008600846006840F06040086026488069EC
:1007600000F00800082805D02348806940F0080000
:10077000214988612248001F006820F070602049EC
:10078000091F08600846006840F0606008601A4869
:10079000C06940F400101849C8611B48008820F067
:1007A0003F00194908800846008840F0240008806E
:1007B0001548183000886FF30B0013491831088072
:1007C0000846008840F4B47008801D20091D088088
:1007D0000D48001F008840F001000B49091F0880E8
:1007E000054813E018ED00E000E400E09C00002064
:1007F000DC290008401901000010024000200240DE
:10080000040C01400038004004540040806900F0AE
:100810000400042805D0FA48806940F00400F84933
:100820008861F848006820F47040F649086008467E
:10083000006840F400400860F2481030006840F062
:100840000800F04910310860ED48806900F00400AC
:10085000042805D0EA48806940F00400E84988612E
:10086000E848006820F47060E649086008460068BF
:1008700040F420600860E248C06940F40030E0497C
:10088000C861E148008840F40050DF49088040F228
:100890003910091F0880081D008840F02400091D38
:1008A0000880D748806900F00400042805D0D448A7
:1008B000806940F00400D2498861D248001D006878
:1008C00020F47060CF49091D08600846006840F4B4
:1008D00000600860CB481030006840F48060C9496F
:1008E00010310860C648806900F00400042805D073
:1008F000C348806940F00400C1498861C148001DB7
:10090000006820F0F000BF49091D08600846006833
:1009100040F0A0000860BA48806900F00400042894
:1009200005D0B748806940F00400B5498861B548F2
:10093000001D006820F00F00B249091D086008463C
:10094000006840F00A000860AD48806900F00800C7
:10095000082805D0AA48806940F00800A8498861A5
:10096000AA48006820F47000A8490860084600689A
:1009700040F400100860A248806900F004000428D8
:1009800005D09F48806940F004009D4988619D48DA
:10099000001D006820F470209A49091D086008466F
:1009A000006840F4003008609548806940F4804059
:1009B000934988619648008840F430409449088003
:1009C000081D008840F4F850091D0880A0209049B7
:1009D000091F0880081D008840F00800091D0880D4
:1009E0008748806940F40060854988618548001D1A
:1009F000006820F440408349091D086008460068EB
:100A000040F4004008600846006840F40050086068
:100A100040F293307F49088027207E4918390880AA
:100A200048F6A040091D08807A482438008840F420
:100A3000C0407849243908800846008840F40060A6
:100A40000880081D008840F48050091D0880714806
:100A5000001D008840F400406E49091D08806D4863
:100A60004038008840F081006A4940390880644875
:100A7000406820F44040624948600846406840F4BD
:100A8000404048600846806940F4007088615D48D5
:100A9000006820F0C0005B4908600846006820F04C
:100AA000300008605C48006840F001005A49086066
:100AB00059482C38006840F4F01057492C39086028
:100AC0000846006840F0080008600846006840F0EA
:100AD0000100086000BF50482C38006800F0080092
:100AE0000828F8D04C482C38006840F004004A49E7
:100AF0002C39086000BF48482C38006800F0080016
:100B00000428F8D044483038006840F020004249BA
:100B1000303908607047014600BF4048008810F037
:100B2000020FFAD03D48001D018000BF3B480088FD
:100B300010F0010FFAD03948001D0088C0B270478C
:100B400000BFFEE700BF00235A1E19463448006864
:100B500001F0E3FC33480088C01032490880324974
:100B600030480088FFF757FC00202E4908802A48AB
:100B70002C38006840F0010027492C3908600846ED
:100B8000006840F480000860DDE700BF27488078F7
:100B90002649497800EB012025490880234800793F
:100BA0002249C97800EB0120214948801F488079FB
:100BB0001E49497900EB01201D4988801B48407A75
:100BC0001A49097A00EB01201A4908801848008860
:100BD000801100EB400000F293300E490880D5E709
:100BE00000BFFEE710B514480078212826D1002068
:100BF000114908700021084600F077FC32E000003F
:100C000000100240000801400C440040000C01406C
:100C10000C380140402C0140342401400838004089
:100C20003000002016000020B9000020BD00002088
:100C3000280000202E00002014000020A248007888
:100C4000102804D10021012000F04FFC05E09F494D
:100C50009D4A1278885C00F02DFC9B480078401C6F
:100C60009949087010BD1FB56420FFF73BFCFFF7E2
:100C700044FC00F056FC96A0FFF7C2FB03220021C3
:100C8000012001F0B3FA9B4908600846006830B1C2
:100C900000231A4619469748006801F063FB0322B7
:100CA0000021012001F0A2FA93490860084600687B
:100CB00030B100231A4619468F48006801F052FBF4
:100CC00003220021012001F091FA8C4908600846B6
:100CD000006830B100231A4619468848006801F0C0
:100CE00041FB00231A4619468348006801F03AFB8D
:100CF00062B60F211220FFF773FB0F212420FFF7AC
:100D00006FFB0F212620FFF76BFB122000F0D0F8BD
:100D1000242000F0CDF8262000F0CAF878480068BA
:100D200040F480007649086000F02FF900F03DF9AA
:100D3000744882230122A0210090104600F0A8F9F7
:100D400003240FE070480090E01E00EB80000222B8
:100D500002EB400081B26D4B0722204600F0C5F93E
:100D6000601CC4B2072CEDDB002000F0FDF96848E0
:100D7000684908606848694908605D22502146203A
:100D800000F051FA66A20A214F2000F006FB002075
:100D90000223CDE9003002900346782263A103903C
:100DA000AFF2632000F0C2FC00200223CDE9003046
:100DB0000290034678225FA10390AFF2772000F003
:100DC000B5FC00200223CDE90030029003467822D2
:100DD00059A10390AFF24D2000F0A8FC002002239F
:100DE000CDE9003002900346782256A10390AFF27D
:100DF0000F2000F09BFC00F0CAFF00BFFEE710B51B
:100E00003F480838006800F00200022827D13C481B
:100E1000443000684C49098808444B4908804B48D5
:100E20000078401C4949087008460078082810D10D
:100E3000002008700023464A19462E48006801F039
:100E40001AFB2F48006820F001002D49086001F0CE
:100E50009DF92B48006840F480002949086010BDC6
:100E60003C48008810F0200F21D03B4800780A2829
:100E700013DA3848001D00883849374A12788854F8
:100E8000084635490978405C1049334A127888543D
:100E900031480078401C304908702E48001D0088F9
:100EA000412804D10949087001202B490870704776
:100EB00000F01F020121914042094FF0E02303EBB3
:100EC0008202C2F800117047140000209C0000202C
:100ED0003D3D3D3D4D6168616A726F643D3D3D3D04
:100EE0003B2D2D2D2D2D2D2D2D2D2D2D2D2D2D2D24
:100EF0002D000000300000203400002038000020C9
:100F000008240140A40FF500DBDBDB00ABF6340066
:100F1000201616004400002017E72700400000209C
:100F20005BCCE0F5E0E9F0EEE45D00004C454431D7
:100F300000000000414443004A6F79737469636B99
:100F40000000000053504900160000201800002047
:100F500020000020004400401A000020BD000020B6
:100F60004FF40012FE4B1A6090FAA0F2D10D00BFB0
:100F7000FC4A128812F0800FFAD0FA4B1B1D198020
:100F80004FF40012F64B1A60704710B54FF08050C6
:100F9000F54908603220FFF7A5FA4FF48050F24976
:100FA00008603220FFF79EFA10BD00B50120FFF760
:100FB000D7FF1120FFF7D4FF1320FFF7D1FF202028
:100FC000FFF7CEFF3820FFF7CBFFB020FFF7C8FFB9
:100FD0004FF48870FFF7C4FF3620FFF7C1FF4FF4CE
:100FE000FC70FFF7BDFF3A20FFF7BAFF40F2051093
:100FF000FFF7B6FF2920FFF7B3FF00BDF0B50446A9
:101000000D4616461F462A20FFF7AAFF4FF48071AF
:1010100041EA2420FFF7A4FF44F48070FFF7A0FF0B
:101020004FF4807141EA2520FFF79AFF45F4807064
:10103000FFF796FF2B20FFF793FF4FF4807141EAF3
:101040002620FFF78DFF46F48070FFF789FF4FF4ED
:10105000807141EA2720FFF783FF47F48070FFF794
:101060007FFF2C20FFF77CFFF0BD30B50146CBB2EF
:10107000C1F30722C1F30744E02000EAC20040EABE
:10108000E40003F0F80545EA621540EA052030BDAA
:101090002DE9F04704460D4616461F46DDF820A010
:1010A0005046FFF7E2FF81463B463246294620463E
:1010B000FFF7A4FF4FF001080DE04FF4807141EA03
:1010C0002920FFF74DFF49F48070FFF749FF08F131
:1010D00001001FFA80F8281B401CB91B491C48431B
:1010E000401C4045E9DCBDE8F0872DE9F84F044697
:1010F0000D46164699464846FFF7B7FF00905846FA
:10110000FFF7B3FF8346F01DC3B2F2B2E81DC1B2D0
:10111000E8B2FFF773FF002722E04FF000081AE063
:1011200007EBC4009149085C012101FA08F108426B
:1011300001D0DA4601E0DDF800A04FF4807141EA09
:101140002A20FFF70DFF4AF48070FFF709FF08F12E
:10115000010000F0FF08B8F1080FE1DB781CC7B20E
:10116000082FDADBBDE8F88F18B98149814A116090
:1011700003E000217F4A116000BF00BF70470146B5
:101180007C48006808B9002070477A4800684078B9
:10119000884204DC774800688078884201DA0020C1
:1011A000F2E774480068C07810F0010F04D071486D
:1011B00000684068C0B208E06E48006840686D4A48
:1011C000126852788A1A30F82200C0B2DCE7694807
:1011D000006808B900207047664800680078FAE7A0
:1011E00030B50346002500246248006800B10BB901
:1011F000002030BD12E055B15E480068C07810F0A4
:10120000010F01D0012000E00220204484B21878B0
:10121000FFF7B5FF0546601984B25B1C18780028FB
:10122000E9D12046E5E72DE9FF4F06460F46144673
:1012300050480068C07810F0010F04D04D48006895
:101240004068C0B208E04B480068406849490968F6
:101250004978611A30F82100C5B24648006890F814
:10126000008045480068FFF700FF0290434800688F
:10127000FFF7FBFE01903F480068C07810F0010FB7
:1012800009D03C4800684078201A3A490968496802
:10129000C9B2484309E037480068406835490968E1
:1012A0004978611A00EB81004088324909688968F1
:1012B000084400902F48006818B9002004B0BDE829
:1012C000F08F2C4800684078A04204DC2948006870
:1012D0008078A04201DA0020F0E77819401EC3B2FE
:1012E00006EB0800401EC1B2FAB2F0B2FFF786FE6C
:1012F0004FF0000AD1464CE00020039028E01AF09D
:10130000070F03D1009810F801BB00901BF0800F6D
:1013100001D0029900E001994FF4807242EA212045
:10132000FFF71EFE1BF0800F01D0029900E001992B
:1013300041F48070FFF714FE4FEA4B604FEA106BE8
:101340000AF1010000F0FF0A0398401CC0B20390AC
:101350000398A842D3DB07480068C07810E000007B
:10136000100C01400038014010080140EC29000831
:10137000842F00083C000020440000204000002092
:1013800010F0020F01D14FF0000A09F1010000F046
:10139000FF09C145B0DB284690E72DE9F843044634
:1013A0000D461646A04600271F48006890F800909A
:1013B00031E0327829462046FFF735FF07461B48C3
:1013C00000680090E819DFF860C0DCF800C09CF805
:1013D00003C01CF0010F02D04FF0010C01E04FF0F0
:1013E000020C6044401EC3B2E819C2B204EB09000B
:1013F000401EC1B2E0B2FFF74BFE0B480068C07858
:1014000010F0010F01D0012000E00220284405B2B5
:10141000E81905B2761C30780028CAD1A4EB080080
:1014200080B2BDE8F88300003C00002040000020AE
:1014300010F0800F03D001218A4A116003E04FF4BD
:101440008031884A116010F0400F04D04FF40071D1
:10145000844A116003E04FF00071824A116010F07D
:10146000200F03D02021804A116003E04FF40011C7
:101470007D4A116010F0100F03D040217A4A1160AC
:1014800003E04FF48001784A1160704700B50346CD
:101490001846FFF7CDFF80207349086000040860FC
:1014A0001907080EFFF7C4FF80206F490860000489
:1014B000086000BD00B503461846FFF7B9FF4FF4BA
:1014C00080706849086080206749086000040860EF
:1014D0001907080EFFF7ACFF80206349086000047D
:1014E000086040005F49086000BD30B505460C4605
:1014F00025B144F0C000FFF7C9FF03E044F08000CD
:10150000FFF7C4FF30BD10B5044606E014F8010B28
:10151000FFF7D0FF0120FEF7E5FF20780028F5D186
:1015200010BD10B54FF480004F49086040100860AE
:1015300000014C49086040120860C0014A49086037
:10154000400048490860C0110860474810380068EA
:1015500020F040604449103908600846006820F4D3
:10156000400008603F480C38006820F0C0003D494A
:101570000C390860081F006820F00C00091F086083
:1015800039481038006820F0404037491039086069
:1015900034480C38006820F00C0032490C390860DF
:1015A000081F006820F0C000091F08602E4810388E
:1015B000006840F000702C49103908600846006847
:1015C00040F40010086027480C38006840F0200004
:1015D00024490C390860081F006840F00200091F08
:1015E000086021481038006840F000501E4910394A
:1015F00008601C480C38006840F0020019490C399A
:101600000860081F006840F02000091F08603020B3
:10161000FFF70EFF802014490860000408600420D2
:10162000FEF760FF2820FFF731FF0420FEF75AFF86
:101630002820FFF72BFF0420FEF754FF0E20FFF7B2
:1016400025FF0420FEF74EFF0120FFF71FFF0820B3
:10165000FEF748FF0620FFF719FF0420FEF742FFC0
:1016600010BD0000100C01401008014010B500240E
:1016700007E004EB8401FE4A02EB810001F02DF843
:10168000641C052CF5D3FB4801F027F8FA4801F05B
:1016900024F8FA4801F021F8F94801F01EF8F5485D
:1016A000F8490860F448F849086010BD2DE9F04198
:1016B00004460E4615469846069F1022314604F110
:1016C000340001F0A1F8002143200155052D00D37D
:1016D0000425E5626564201D01F00CF804F1180092
:1016E00001F008F82461C5F10500A0616462BDE85D
:1016F000F08170B505460E46482000F091FC044686
:1017000094B11EB9A80000F08BFC00E030462063C5
:10171000206B20B9204600F0E4FC002404E0A9007E
:10172000A522206B01F068F8204670BD2DE9FF4F1F
:1017300081B0804615469946DDE90E7A2846109913
:10174000FFF7D7FF0446002C56D0681E216B01EB33
:10175000800B2BF0070B00953A462046119B02990F
:10176000FFF7A4FF4A464146584600F0E5FC2060DA
:10177000BAF1000F01D0CAF8004000F00DFDC348D7
:101780000068401CC1490860C148006840B9C048B1
:1017900004600846006801280CD1FFF767FF09E0E4
:1017A000BC48006830B9BA480068C06AB84201D87D
:1017B000B7480460B849E06A0968884202D9B64966
:1017C000E06A0860B5480068401CB4490860B44944
:1017D000E06A0968884202D9B149E06A0860E16AB2
:1017E00001EB8101A24A02EB8100211D00F085FF7F
:1017F000012600F0DAFC01E04FF0FF36012E09D19E
:10180000A448006830B1A2480068C06AB84201D25A
:1018100000F0BCFC304605B0BDE8F08F70B5A148C3
:101820000068002866D1A0480068401C9E490860F6
:101830000846006808BB9349086893490968914ABB
:1018400011609149086099490968491C974A1160DB
:101850008C490968096809B9012100E0002121B11A
:101860004FF0FF31924A116006E086490968C96865
:10187000CC688F4A6168116000BF8B4800688C4952
:101880000968884235D300BF7E480068006808B9FF
:10189000012000E0002020B14FF0FF3084490860B3
:1018A00026E078480068C068C46865687E480068BB
:1018B000A84202D27E4805601AE0201D00F045FFD4
:1018C000A06A18B104F1180000F03FFF7449E06A03
:1018D0000968884202D97249E06A0860E16A01EB4E
:1018E0008101634A02EB8100211D00F006FFCBE776
:1018F00000BF04E06F480068401C6E49086070BD7E
:1019000070B5002500F048FC66480068401E654937
:1019100008600846006800284CD15C480068002830
:1019200048D0002621E05548C068C46804F118007A
:1019300000F00BFF201D00F008FF5949E06A09681C
:10194000884202D95649E06A0860E16A01EB8101E8
:10195000474A02EB8100211D00F0CFFE4C49E06AAE
:101960000968C96A884200D301264448006808B95A
:10197000012000E000200028D5D04E48006860B16A
:1019800006E0FFF74BFF4B480068401E49490860DE
:10199000484800680028F4D10126012E03D04648AB
:1019A0000068012805D1012500204349086000F0A6
:1019B000EDFB00BF00F0F9FB284670BD10B50446F2
:1019C00033480068446038480068844207D2304891
:1019D0000168091D2C48006800F09DFE0CE02C48B1
:1019E0000168091D2748006800F095FE304800682E
:1019F000844201D22E48046010BD2A480068401C71
:101A00002849086070472DE9F04104460F464FF021
:101A10000008FFF7F2FF2068C5192349206809680C
:101A2000884209D92068A8420FD91F48006885421A
:101A30000BD94FF0010808E02068A84203D81A48E3
:101A40000068854201D94FF001082560B8F1000F08
:101A500007D00F480068001D00F077FE2846FFF70A
:101A6000ADFFFFF74DFF06460EB900F08FFB25E0F6
:101A7000C80200202C030020400300205403002053
:101A800068030020780000207C0000204C0000202B
:101A9000480000205C00002054000020700000205E
:101AA0005800002060000020500000206C00002042
:101AB000740000206400002068000020BDE8F08170
:101AC00070B5044600267CB1FFF797FFF748006821
:101AD0000519F7480068001D00F037FE2846FFF79B
:101AE0006DFFFFF70DFF06460EB900F04FFB70BD0E
:101AF00070B5044600F050FB14B9ED48006800E0F2
:101B000020460646F56A00F050FB284670BD2DE9D8
:101B1000F04106460D464FF00008052D00D3042580
:101B200000F03AFBE2480068864200D1002616B970
:101B3000DF48006800E030460446676CAF4232D0B0
:101B4000BD4203D92EB14FF0010802E00EB94FF0AB
:101B50000108E16A606C884200D1E5626564C5F104
:101B60000500A06107EB8701D24A02EB81016069A1
:101B7000884213D1201D00F0E8FDCF49E06A0968D2
:101B8000884202D9CC49E06A0860E16A01EB810130
:101B9000C84A02EB8100211D00F0AFFDB8F1010F32
:101BA00001D100F0F3FA00F000FBBDE8F081C3487A
:101BB000006818B10120C249086025E004E0BE4871
:101BC0000068401EBC490860BB48006800EB80000C
:101BD000B84951F820000028F1D0B749096801EB55
:101BE0008101B44A02EB810041684968416000F11B
:101BF000080142688A4202D14168496841604168EF
:101C0000C968AB4A116000BF704770B5044600F068
:101C1000C3FAA7480068844200D1002414B9A4483C
:101C2000006800E020460546281D00F08EFDA86AE9
:101C300018B105F1180000F088FD291DA14800F039
:101C40005CFD00F0B2FA8CB99F48006810B100F05A
:101C50009DFA0BE09B4800689C490968884203D1C3
:101C600000209349086001E0FFF7A1FF70BD10B5A7
:101C7000014600200A46934C5369A34201D1012337
:101C800000E0002383B1924C936AA34201D1012367
:101C900000E00023012B07D0936A0BB9012300E079
:101CA0000023012B00D1012010BD70B505462C4644
:101CB00044B37F480068844224D000F06DFA204687
:101CC000FFF7D5FF01281BD1201D00F03EFD7A490A
:101CD000E06A0968884202D97749E06A0860E16AE7
:101CE00001EB8101734A02EB8100211D00F005FD2B
:101CF0006F49E06A0968C96A884201D300F046FA70
:101D000000F053FA70BD2DE9F041054600262C463F
:101D10000027FEF773FA2046FFF7A9FF012826D116
:101D200066480068F0B96249E06A0968C96A884291
:101D300001D3012000E000200646201D00F005FD33
:101D40005D49E06A0968884202D95B49E06A086037
:101D5000E16A01EB8101574A02EB8100211D00F08D
:101D6000CCFC04E004F11801594800F0C6FCFEF771
:101D70004CFA3046BDE8F081704700BFFFF7FCFF2A
:101D80004C4800680128F9D900F000FAF6E71FB5C1
:101D90000020009001900290034678224DA103900C
:101DA0004E48FFF7C3FC0446012C09D1FEF726FA82
:101DB00001204549086000203C49086000F0D0F946
:101DC0001FBD10B5FEF71AFA00203F49086000F069
:101DD000DCF910BD10B500F0DFF93448046800F0FC
:101DE000E4F9204610BD70B50025FEF707FA2F482C
:101DF0000468FEF70AFA204670BD34480068704750
:101E000070B506460C462A4801681831304600F085
:101E100082FC27480068001D00F097FC601C06D17A
:101E200023480168091D274800F067FC05E01F48AA
:101E3000006805192846FFF7C1FD70BD70B506465C
:101E4000F068C46804F1180000F07FFC1B480068CB
:101E5000A0B9201D00F079FC1749E06A09688842A2
:101E600002D91549E06A0860E16A01EB8101114A73
:101E700002EB8100211D00F040FC04E004F1180198
:101E8000134800F03AFC0A49E06A0968C96A8842C6
:101E900001D3012500E00025284670BD10490968DE
:101EA000016002490968416070470000500000204D
:101EB00048000020C80200205800002060000020D8
:101EC00068000020680300205C0000204C00002017
:101ED0005403002049444C45000000007B1D0008CD
:101EE0006C00002070B504460D4600F055F92868D6
:101EF000401C01D100261FE0434920680968884240
:101F000006D0424960680968884201D8012613E07A
:101F10003E4960680968081A296888420BD2286817
:101F20003A4A61681268511A401A28602046FFF741
:101F3000B5FF002600E0012600F037F9304670BDFD
:101F4000012033490860704732490868704770B50E
:101F500005462C462F49E06A0968C96A88422FD293
:101F60002C480068C06AC0F10500A061E16A01EB7D
:101F70008101294A02EB81016069884201D1012077
:101F800000E00020C0B1201D00F0DFFB2148006808
:101F9000C06AE0622149E06A0968884202D91F49A3
:101FA000E06A0860E16A01EB81011B4A02EB8100F3
:101FB000211D00F0A2FB03E016480068C06AE06241
:101FC00070BD70B505462C46EDB1616CE06A884283
:101FD00019D0201D00F0B9FB606CE062E06AC0F12E
:101FE0000500A0610D49E06A0968884202D90B49E1
:101FF000E06A0860E16A01EB8101074A02EB8100B7
:10200000211D00F07AFB70BD6C0000205000002004
:102010006800002048000020C8020020580000206E
:102020002DE9F04104464FF00008FFF7E6FC3D487B
:10203000006898B93C493D4A1160002151604FF455
:10204000A0513B4A51600021116037484FF4A05124
:1020500041601146016001203249086044B11034EA
:1020600014F0070F04D004F00700C0F10800044486
:10207000002C31D0B4F5A05F2ED22C4F3846056825
:1020800001E02F462D686868A04202D22868002827
:10209000F7D1274885421FD0386800F1100828681A
:1020A00038606868001B202810D92E196868001B4A
:1020B00070606C6071681D4800E0006802685268DA
:1020C0008A42FAD302683260066000BF1949686824
:1020D0000968081A17490860FFF712FC4046BDE876
:1020E000F08170B506463546B6B1103D2C46FFF777
:1020F00084FC61680D4800E00068026852688A420A
:10210000FAD30268226004600A49606809680844DA
:1021100008490860FFF7F4FB70BD06480068704787
:102120007047000084000020800300208800002009
:102130009000002080000020001F4FF0807303609B
:10214000001F0160001F0023036014380260203864
:10215000704723484FF0E02148610720086170472D
:1021600010B52048006840F47F001E49086008460A
:10217000006840F07F400860FFF7EBFF00201A493D
:102180000860FEF713F8002010BD70474FF0805034
:1021900014491C390860704710B5FEF72FF8124833
:1021A0000068401C1049086010BD10B50E4800685A
:1021B000401E0D4908600846006808B9FEF725F87A
:1021C00010BD10B54FF0805006491C39086000243E
:1021D000FEF714F8FFF722FBFEF717F810BD00001A
:1021E0003F7E050020ED00E0980000202DE9F0473B
:1021F00005460E4691464FF000084DB34C20FFF7C0
:102200000FFF044624B305FB06F0471C3846FFF7D2
:1022100007FF20602068E0B1206805FB06006060D1
:102220000020A0632068A060681E216800FB0610E3
:10223000E060E56326644FF0FF306064A06404F161
:10224000100000F04AFA04F1240000F046FAA0461B
:1022500002E02046FFF745FF4046BDE8F08710B595
:102260000446FFF799FF11E0606A08B9012000E019
:10227000002050B904F12400FFF7E0FD08B1FFF79A
:102280005FFEA06C401EA06400E002E0A06C00288D
:10229000EADC00BF4FF0FF30A064FFF786FFFFF7D6
:1022A0007BFF11E0206908B9012000E0002050B94F
:1022B00004F11000FFF7C2FD08B1FFF741FE606CAA
:1022C000401E606400E002E0606C0028EADC00BFB1
:1022D0004FF0FF306064FFF768FF10BD70B5044633
:1022E000FFF75AFFA06BE16B884201D1012000E0AB
:1022F00000200546FFF759FF284670BD70B504461B
:102300000E461546206C38B9206838BB6068FFF768
:1023100058FE0020606021E07DB93146226CA06843
:1023200000F025FA216CA0680844A060D4E90110EF
:10233000884213D32068A06010E03146226CE06828
:1023400000F015FA216CE068401AE0602168E0684E
:10235000884203D2216C6068401AE060A06B401C88
:10236000A06370BDFFB583B004460E461D4600272E
:1023700000BFFFF711FFA06BE16B884217D22A461E
:1023800031462046FFF7BAFF606A08B9012000E035
:10239000002038B904F12400FFF750FD012801D1D5
:1023A000FFF7F4FEFFF701FF012007B0F0BD05982D
:1023B00018B9FFF7FAFE0020F7E71FB901A8FFF7E9
:1023C0006DFD0127FFF7F1FEFFF717FBFFF7E4FEB6
:1023D000606C401C00D16064A06C401C00D1A06403
:1023E000FFF7E3FE05A901A8FFF77CFDC0B9204671
:1023F000FFF774FF70B104F110000599FFF700FDBD
:102400002046FFF72CFFFFF77BFA0028B1D1FFF73A
:10241000BDFEAEE72046FFF722FFFFF771FAA8E7FF
:102420002046FFF71CFFFFF76BFA0020BDE770B5F1
:1024300005464C20FFF7F4FD0446D4B1002060604F
:102440002060A060E060A0630120E06300202064C1
:10245000401E6064A06404F1100000F03EF904F135
:10246000240000F03AF900231A4619462046FFF7E7
:1024700079FF204670BD2DE9F04704468846164690
:102480001F464FF00009FDF7B9FEA06BE16B8842D3
:102490001AD23A4641462046FFF730FFA06C401C56
:1024A0000DD1606A08B9012000E0002050B904F1A4
:1024B0002400FFF7C3FC28B10120306002E0A06CCB
:1024C000401CA064012500E00025FDF79EFE284683
:1024D000BDE8F08770B50446FFF75EFEA06B08B953
:1024E000012000E000200546FFF75FFE284670BD92
:1024F00070B504460D46206870B1216CE068084450
:10250000E0606168E068884201D32068E0602846A6
:10251000226CE16800F02BF970BD2DE9FF4182B01B
:1025200004460F461D464FF0000800BFFFF734FE7B
:10253000A06B80B3E66839462046FFF7D9FFB5B9EE
:10254000A06B401EA063206810B9FFF7FDFC60601F
:10255000206908B9012000E00020B0B904F11000A2
:10256000FFF76CFC012810D1FFF710FE0DE0E660CC
:10257000606A08B9012000E0002030B904F12400AD
:10258000FFF75CFC08B1FFF701FEFFF70EFE01202C
:1025900006B0BDE8F081FFE7049818B9FFF705FE23
:1025A0000020F5E7B8F1000F04D16846FFF776FC8C
:1025B0004FF00108FFF7F9FDFFF71FFAFFF7ECFDF9
:1025C000606C401C00D16064A06C401C00D1A06411
:1025D000FFF7EBFD04A96846FFF784FC08BB204623
:1025E000FFF778FFB8B1206830B9FFF7D5FD606814
:1025F000FFF7ADFCFFF7D9FD04F124000499FFF7C4
:10260000FFFB2046FFF72BFEFFF77AF900288DD15C
:10261000FFF7BCFD8AE72046FFF721FEFFF770F9C0
:1026200084E72046FFF71BFEFFF76AF90020AFE7BB
:102630002DE9F04104460F4616464FF00008FDF71D
:10264000DDFDA06BE0B139462046FFF751FFA06BDE
:10265000401EA063606C401C0DD1206908B90120A8
:1026600000E0002050B904F11000FFF7E7FB28B1AB
:102670000120306002E0606C401C6064012500E0D5
:102680000025FDF7C2FD2846BDE8F08170B504467F
:10269000FFF782FDA56BFFF788FD284670BD014658
:1026A000886B704710B504462068FFF71AFD204676
:1026B000FFF717FD10BD01468A6B0AB9012200E041
:1026C00000221046704701468A6BCB6B9A4201D1BB
:1026D000012200E000221046704700F1080141602D
:1026E0004FF0FF31816000F10801C16001610021FC
:1026F00001607047002101617047426853684B6078
:1027000043688B6053689960516041600861036859
:102710005B1C0360704710B502460B685C1C01D15E
:10272000106907E002F1080000E04068446824688E
:102730009C42FAD944684C604C68A1608860416052
:102740000A611468641C146010BDD0E901329A60FB
:10275000D0E901235A6001694A68824201D1826846
:102760004A60002202610A68521E0A607047032A0A
:1027700040F2308010F0030C00F0158011F8013B9E
:10278000BCF1020F624498BF11F801CB00F8013B85
:1027900038BF11F8013BA2F1040298BF00F801CB49
:1027A00038BF00F8013B11F0030300F05B80083AEA
:1027B000C0F0088051F8043B083A51F804CBA0E877
:1027C0000810F5E7121D5CBF51F8043B40F8043BCC
:1027D000AFF30080D20724BF11F8013B11F801CB01
:1027E00048BF11F8012B24BF00F8013B00F801CBD2
:1027F00048BF00F8012B704702F0FF0343EA0322B1
:1028000042EA024200F062B810B5044610F0030F2D
:1028100008BF11F0030F40F015804FF0013E121F6A
:10282000C0F20E8051F8043BA3EB0E0C2CEA030C13
:102830001CEACE1C08BF40F8043BF0D0A1F1040113
:1028400002F10402521E08DB11F8013B002B00F8D4
:10285000013BF7D1114600F037F8204610BD704714
:102860007047704710B5203AC0F00B80B1E818509F
:10287000203AA0E81850B1E81850A0E81850BFF46A
:10288000F5AF5FEA027C24BFB1E81850A0E8185009
:1028900044BF18C918C0BDE810405FEA827C24BF5D
:1028A00051F8043B40F8043B08BF7047D20728BFEB
:1028B00031F8023B48BF11F8012B28BF20F8023B3A
:1028C00048BF00F8012B70474FF000020429C0F008
:1028D000128010F0030C00F01B80CCF1040CBCF152
:1028E000020F18BF00F8012BA8BF20F8022BA1EBA4
:1028F0000C0100F00DB85FEAC17C24BF00F8012B89
:1029000000F8012B48BF00F8012B70474FF0000280
:1029100000B5134694469646203922BFA0E80C50D5
:10292000A0E80C50B1F12001BFF4F7AF090728BFB0
:10293000A0E80C5048BF0CC05DF804EB890028BF2C
:1029400040F8042B08BF704748BF20F8022B11F055
:10295000804F18BF00F8012B7047754600F028F82B
:10296000AE4605006946534620F00700854618B07C
:1029700020B5FDF75FFCBDE820404FF000064FF0AA
:1029800000074FF000084FF0000B21F00701AC46A4
:10299000ACE8C009ACE8C009ACE8C009ACE8C009C3
:1029A0008D4670470446AFF300802046FDF7E7FBF5
:1029B00000487047801700200048704784170020A7
:1029C00001491820ABBEFEE726000200704710B593
:1029D000FFF7F2FF4FF00001016010BD30313233DC
:1029E0003435363738394142434445463C42819D6F
:1029F0009189423C1C2764A79C4030083C5AA5DBC7
:102A0000DBA55A3C3C34E724E724E73C1E334182F3
:102A10008241331E1C327BFEFE7F3E1CC0DFD1D1C3
:102A2000D1D1DFC07E464A52524A467E3C3C66C304
:102A3000FF002A49384480BFBF804438FCFCCFCD1A
:102A4000CDCFFCFC103070FFFF703010080C0EFF73
:102A5000FF0E0C083C42999D9D99423C60B0D62BDC
:102A60004DB2D060060C18FFFF180C063C7EC399CF
:102A70003C4218240000183C3C1800005C2774AF4E
:102A80009C423108000000000008640464087CD601
:102A9000FAD67C387C3E7C38183C7E3C182022FEDE
:102AA0002220307AFE7A30387C7C7C38FFE7C3E71E
:102AB000FF101054381010387C10F00C12328CC0FB
:102AC00060949E946010387C10100CFC80463E1080
:102AD000386C381000FE7C381010387CFE00286CF2
:102AE000FE6C2800FA00FA0060F0FE80FE0252AA96
:102AF00094803E3E3E3E3E296DFF6D292060FE6083
:102B000020080CFE0C0800000000001038541010C3
:102B10007010101010103810381018387838181835
:102B20001C1E1C1800000000000000FA000000E05D
:102B300000E00028FE28FE282454FE5448C4C81093
:102B400026466C92AA440A00A0C0000000384482C5
:102B5000000082443800105438541010107C1010BB
:102B6000000A0C00001010101010000606000004EF
:102B7000081020407C8A92A27C0042FE020042861D
:102B80008A92628482A2D28C182848FE08E4A2A20B
:102B9000A29C3C5292920C808E90A0C06C92929219
:102BA0006C6092929478006C6C0000006A6C00007B
:102BB0000010284482282828282882442810004011
:102BC000808A90604C929E827C7E8888887EFE926D
:102BD00092926C7C82828244FE82824438FE92927F
:102BE0009282FE909080807C82828A4CFE1010102F
:102BF000FE0082FE8200040282FC80FE10284482D5
:102C0000FE02020202FE402040FEFE201008FE7C72
:102C10008282827CFE909090607C828A847AFE9090
:102C2000989462629292928C8080FE8080FC020274
:102C300002FCF8040204F8FE041804FEC62810285A
:102C4000C6C0201E20C0868A92A2C20000FE8282D8
:102C500040201008048282FE0000204080402002B4
:102C6000020202020080402000042A2A2A1EFE12CC
:102C700022221C1C222222041C222212FE1C2A2A8E
:102C80002A18107E90804010282A2A3CFE1020200E
:102C90001E0022BE0200040222BC0000FE08142214
:102CA0000082FE02003E2018201E3E1020201E1C26
:102CB0002222221C3E28282810102828183E3E10C8
:102CC000202010122A2A2A0420FC2202043C02029C
:102CD000043E38040204383C020C023C221408145E
:102CE00022300A0A0A3C22262A322200106C820074
:102CF0000000FE000000826C10002040201020FE2A
:102D0000828282FE80FE90221C223E62A030000061
:102D10000A0C00001E5090000A0C000A0C0200026F
:102D200000024040FE40404444FE4444287CAA82C5
:102D300044C8102640867E80FE120C000060A00071
:102D4000FE10FE120C7E0848946280FE88100EFC75
:102D5000040604FC40FC50120C000060A00000A01F
:102D6000C0000060A00060A0A0C000A0C0387C7CB3
:102D70007C380010101000101010101040808A9045
:102D8000609E88E4889E1E203E0A0400A060000029
:102D90003E083E0A043E0854820040FE48100E3CA5
:102DA0000406043C0000000000318A448830114AC7
:102DB0002448100C0E82FC802418241824427E42E1
:102DC00040C00000EE00000052AA94007ED252D211
:102DD000427E99A5A57E7CA2A2824C102844102890
:102DE000101010101810101010107EBDA9957E4202
:102DF000C27EC24200E0A0E00000247424000082F1
:102E0000FE82000022BE0200101E1030003E10089C
:102E100010386090FE80FE00001000001CAA2AAA54
:102E2000183E0804DEC01C2A2A2204281044281058
:102E300004223C4000629292928C122A2A2A0400B8
:102E4000A23E82007E8888887EFE9292920CFE923C
:102E500092926CFE80808080067C84FC06FE9292BA
:102E60009282E618FE18E6448292926CFE081020C8
:102E7000FEFE089020FEFE10284482027C80807EA8
:102E8000FE402040FEFE101010FE7C8282827CFEFE
:102E9000808080FEFE909090607C82828244808060
:102EA000FE8080E4121212FC7884FE8478C628101A
:102EB00028C6FC0404FC02F8080808FEFE02FE0214
:102EC000FEFC04FC04FE80FE22221CFE223E00FECC
:102ED000FE2222221C448292927CFE10FE82FE621E
:102EE000949890FE042A2A2A1E3C5252D20C3E2A62
:102EF0002A1A043E20202020061C243C061C2A2AD4
:102F00002A182E103E102E14222A2A143E040810CD
:102F10003E3E8448903E3E08081422021E20203E79
:102F20003E1008103E3E0808083E1C2222221C3E8D
:102F30002020203E3E282828101C22222214202057
:102F40003E2020300A0A0A3C18243E241822140885
:102F500014223C04043C02380404043E3E023E02B7
:102F60003E3C043C043E203E12120C3E12120C3E2B
:102F70003E1212120C14222A2A1C3E1C22221C125F
:102F80002C28283E0800FF0305000000842A0008C2
:102F9000B02F0008000000209C000000280100085D
:102FA0004C3000089C000020441D00004401000833
:102FB00000127A000000000000000000010203047B
:102FC00006070809000000000000FFFFFF000000E6
:102FD00000000000000000000000000000000000F1
:102FE00000000000000000000000000000000000E1
:102FF00000000000000000000000000000000000D1
:1030000000000000000000000000000000000000C0
:1030100000000000000000000000000000000000B0
:1030200000000000FFFFFFFF0000000000000000A4
:10303000001400000000000000000000000000007C
:0C3040000000000000000000AAAAAAAADC
:04000005080000ED02
:00000001FF
