:020000040800F2
:10000000283F0020190200082102000823020008EE
:10001000250200082702000829020008000000004D
:100020000000000000000000000000008D0100083A
:100030002D02000800000000C1010008DB48000894
:10004000330200083302000833020008E5160008F6
:10005000330200083302000833020008EF140008DE
:10006000351500082B160008711600083302000829
:10007000330200083302000833020008330200088C
:1000800033020008330200084F140008330200084E
:10009000330200083302000833020008330200086C
:1000A000330200083302000833020008330200085C
:1000B0001F1700083302000833020008330200084B
:1000C000330200083302000833020008330200083C
:1000D0003302000833020008B3140008330200089A
:1000E00033020008330200083302000800F002F86F
:1000F00000F03CF80AA090E8000C82448344AAF186
:100100000107DA4501D100F031F8AFF2090EBAE883
:100110000F0013F0010F18BFFB1A43F0010318473B
:10012000C4550000E4550000103A24BF78C878C1D7
:10013000FAD8520724BF30C830C144BF04680C60ED
:10014000704700000023002400250026103A28BF35
:1001500078C1FBD8520728BF30C148BF0B60704739
:100160001FB504F0C0FF1FBD10B510BD04F081FF26
:100170001146FFF7F5FF00F0F5FF04F09FFF03B411
:10018000FFF7F2FF03BC04F0A7FF00001A4B196849
:100190000868B0E8F00F80F309884FF0000080F3A2
:1001A00011884EF00D0E70470000000003480068F3
:1001B000006880F3088862B600DF00BF08ED00E049
:1001C000EFF309800C4B1A6820E9F00F106008B5B6
:1001D0004FF0BF0080F3118804F07AF84FF0000070
:1001E00080F31188BDE8084019680868B0E8F00F8E
:1001F00080F30988704700BFBC00002001B44FF0B5
:10020000BF0080F3118801BC704701B44FF00000BB
:1002100080F3118801BC70470948804709480047AE
:10022000FEE7FEE7FEE7FEE7FEE7FEE7FEE7FEE7A6
:10023000FEE7FEE704480549054A064B7047000003
:10024000ED020008ED00000828390020283F0020BA
:10025000283B0020283B002000210020584A12683B
:1002600042F48032564B1A6000BF554A126802F4BD
:100270000030491C10B9B1F5A06FF6D1504A126890
:1002800012F4003F01D0012000E00020012828D115
:100290004C4A126842F010024A4B1A601A46126821
:1002A00022F003021A601A4612681A60444A526821
:1002B000434B5A601A4652685A601A4652685A604E
:1002C0001A46526822F003025A601A46526842F0F7
:1002D00001025A6000BF3A4A526802F00C02042A36
:1002E000F9D1704710B5FFF7B7FF10BD10B534480E
:1002F000006840F001003249086008464068324911
:1003000008402F49486008460068304908402C4999
:1003100008600846006820F48020086008464068AD
:1003200020F4FE0048604FF41F008860FFF7DAFFFA
:1003300010BD10B5002100200022214B5B6803F0A6
:100340000C0121B1042906D0082928D107E0204B4F
:10035000204C236027E01E4B1E4C236023E0184BEB
:100360005B6803F47010164B5B6803F48032022361
:1003700003EB904022B9184B4343164C23600DE029
:100380000F4B5B6813F4003F04D0134B4343114CF5
:10039000236003E00E4B43430E4C236003E00C4B01
:1003A0000C4C236000BF00BF054B5B68C3F3031315
:1003B0000A4CE15C074B1B68CB40064C236010BD28
:1003C00000100240002002400000FFF8FFFFF6FE90
:1003D00000127A000000002000093D000400002007
:1003E0000246535C481C105C03EB0023881C105C25
:1003F00003EB0043C81C105C03EB006070473FB583
:1004000005460C462078617800EB012080B2ADF8FB
:10041000000002212046FFF7E3FF0190A079E17977
:1004200000EB012080B2ADF80800207A617A00EB81
:10043000012080B2ADF80A000A212046FFF7D0FF64
:1004400003909DE80F0085E80F003FBD30B58BB0ED
:1004500005460C460E212046FFF7C2FF01901221EF
:100460002046FFF7BDFF029016212046FFF7B8FF98
:100470000390A07EE17E00EB012080B2ADF8100079
:10048000207F617F00EB012080B2ADF812001E21B9
:100490002046FFF7A5FF059022212046FFF7A0FF89
:1004A000069026212046FFF79BFF07902A21204631
:1004B000FFF796FF08902E212046FFF791FF099045
:1004C00032212046FFF78CFF0A90282201A92846F6
:1004D00004F01EFD0BB030BD10B5002807DA0A0786
:1004E000140EFE4A00F00F031B1FD45403E00A074A
:1004F000130EFB4A135410BD10B54FF47A7290FBE3
:10050000F2F202F00F02F74B9A5C0A704FF47A7223
:1005100090FBF2F302FB1302642392FBF3F202F06E
:100520000F02F04B9A5C4A704FF47A7290FBF2F330
:1005300002FB1302642392FBF3F403FB14220A234D
:1005400092FBF3F202F00F02E64B9A5C8A704FF4D2
:100550007A7290FBF2F302FB1302642392FBF3F432
:1005600003FB14220A2392FBF3F403FB142202F090
:100570000F02DC4B9A5CCA7010BD10B5642290FB70
:10058000F2F202F00F02D74B9A5C0A70642290FBE1
:10059000F2F302FB13020A2392FBF3F202F00F02C2
:1005A000D04B9A5C4A70642290FBF2F302FB130278
:1005B0000A2392FBF3F403FB142202F00F02C94B4F
:1005C0009A5C8A7010BD0A2290FBF2F202F00F02D0
:1005D000C44B9A5C0A700A2290FBF2F302FB1302EE
:1005E00002F00F02BF4B9A5C4A707047BE4905E0AB
:1005F00001E000BF491E0029FBD1401E0028F7D1B1
:100600007047BA48406820F00300B849486008467F
:10061000406848600846006840F48030086008463A
:10062000006820F08070086000BFB048006810F4D7
:10063000003FFAD0AE48006840F01000AC490860B6
:100640000846006820F0030008600846006840F093
:1006500002000860A548406840F48060A3494860F3
:100660000846406820F4803048600846406820F41E
:10067000003048600846406820F470104860084622
:10068000406840F4881048600846006840F0807078
:10069000086000BF9548006810F0007FFAD09348CA
:1006A000406820F00300914948600846406840F0E7
:1006B0000200486000BF8D48406810F0010FFAD179
:1006C0008A48806940F00C00884988618948006840
:1006D00020F47060874908600846006840F40070A4
:1006E000086084480C30006840F0806081490C311B
:1006F00008608048006820F470407E490860084621
:10070000006840F4005008607A480C30006840F0FF
:10071000006078490C3108607648001F006820F0BE
:10072000F0007449091F08600846006840F0200086
:10073000086070480C30006840F400306D490C319E
:1007400008606C48001F006820F00F006949091F0D
:1007500008600846006840F00200086065480C30F8
:10076000006840F4803063490C31086061480068DB
:1007700020F070405F4908600846006840F0304053
:1007800008605C480C30006840F0004059490C316A
:1007900008605848006820F07060564908600846B4
:1007A000006840F00060086052480C30006840F07B
:1007B000804050490C3108604E48006820F47000B9
:1007C0004C4908600846006840F430000860494819
:1007D0000C30006840F0005046490C310860454834
:1007E000006820F47020434908600846006840F41F
:1007F000302008603F480C30006840F080503D4990
:100800000C3108603948C06940F480403749C861FC
:100810003948008820F038003749088008460088A9
:1008200040F0180008800846008840F00400088066
:10083000081D008840F00400091D0880081F00887A
:1008400040F04000091F08802C48006820F07040EC
:100850002A4908600846006840F0104008602748B0
:100860001030006840F080002449103108602348AF
:10087000006820F07060214908600846006840F078
:10088000006008601D481030006840F040001B49BF
:10089000103108601948006820F47000174908609A
:1008A0000846006840F410000860144810300068E2
:1008B00040F020001149103108601048006820F411
:1008C00070200E4908600846006840F480300860D7
:1008D0000A481030006840F0100011E018ED00E008
:1008E00000E400E0F450000840190100001002404C
:1008F00000200240040C0140003800400008014084
:10090000FE4910310860FE48806940F48050FC497F
:100910008861FC48008820F03800FA4908800846C1
:10092000008840F0300008800846008840F004004D
:1009300008800846808840F00400888008460088C7
:1009400040F040000880ED48001D006820F4706011
:10095000EA49091D08600846006840F40060086024
:10096000E6481030006840F48060E44910310860C7
:10097000E248001D006820F0F000E049091D086011
:100980000846006840F0A0000860DC4810300068AD
:1009900040F40070D94910310860D848001D006843
:1009A00020F00F00D549091D08600846006840F096
:1009B0000A000860D1481030006840F48070CF49C8
:1009C00010310860D048006820F47000CE490860FB
:1009D0000846006840F400100860CB4810300068FA
:1009E00040F02000C84910310860C448001D00686C
:1009F00020F47020C149091D08600846006840F4D1
:100A000000300860BD481030006840F48050BB4999
:100A100010310860BA48806940F48040B849886164
:100A2000BA48008840F43040B8490880081D008862
:100A300040F4F850091D08801020B449091F0880AF
:100A4000081D008840F00800091D0880AC48806936
:100A500040F40060AA498861A848001D006820F49D
:100A60007040A649091D08600846006840F420400F
:100A70000860A2481030006840F400609F491031BF
:100A800008609E48001D006820F470609B49091DA5
:100A900008600846006840F42060086097481030FD
:100AA000006840F48060954910310860272098491B
:100AB000088048F6A040091D088040F29330944910
:100AC0001831088092480C38008840F4C0409049A2
:100AD0000C3908800846008840F400600880081D32
:100AE000008840F48050091D088040F29330884906
:100AF0001431088086480C38008840F06000844932
:100B00000C3908800846008840F008000880081D5D
:100B1000008840F48070091D08807D481C300088E2
:100B200040F400407A491C31088079482838008810
:100B300040F081007649283908807148C06940F04A
:100B400001006F49C86147208904088542F210708E
:100B500088858006808940F0010088816848406867
:100B600020F44040664948600846406840F44040F0
:100B700048600846806940F4007088615F480068FA
:100B800020F00F005D4908600846006808605B4877
:100B90001030006840F4803058491031086000205F
:100BA0005C490860091F0860081F006840F4E00005
:100BB000091F086057483038006840F468405549BC
:100BC00030390860081D006840F4F010091D086005
:100BD0000846006840F0080008600846006840F0D9
:100BE0000100086000BF4B482C38006800F0080086
:100BF0000828F8D047482C38006840F004004549E0
:100C00002C39086000BF43482C38006800F0080009
:100C10000428F8D03F483038006840F020003D49B3
:100C2000303908603548006820F0F000334908602A
:100C30000846006840F080000860304810300068C6
:100C400040F002002D49103108602C48006820F463
:100C500070602A4908600846006840F40060086037
:100C600026481030006840F0040024491031086024
:100C70002248006820F47040204908600846006857
:100C800040F4004008601D481030006840F0080043
:100C90001A49103108601948006820F4702017497B
:100CA00008600846006840F40020086013481030CF
:100CB000006840F480101149103108600F48006846
:100CC00020F470000D4908600846006840F4801068
:100CD00008600A481030006840F4001007491031DD
:100CE00008600748806940F00100054988610A48AA
:100CF0008068094988600846C0680FE00008014024
:100D00000010024000300140000C01400C3801404E
:100D1000282C01403424014000000140C860F848FC
:100D2000006840F00E00F6490860081F006840F0B7
:100D30001000091F0860F2480C38006840F01E00DF
:100D4000EF490C390860EF48C06940F0C050ED49E8
:100D5000C861ED48006840F48070EB490860E948DC
:100D6000006A40F00100E749086200BFE548006AF8
:100D700010F0020FFAD0E348006A40F48070E149B5
:100D800008620846006A40F40040086200BFDF487D
:100D9000008810F0080FFAD000BFDC48008810F07F
:100DA000200FFAD0D948001F008840F00100D74931
:100DB000091F088000BFD548008810F0200FFAD026
:100DC000D248008840F01000D04908800020091D5A
:100DD000088047F6FF70091D0880CC48008820F085
:100DE0001000CA49088000BFC848008810F0200FD2
:100DF000FAD0C448006A20F40040C2490862704733
:100E0000014600BFC248008810F0020FFAD0C04867
:100E1000001D018000BFBE48008810F0010FFAD00D
:100E2000BB48001D0088C0B27047014600BFB948EA
:100E3000008910F0020FFAD0B648818100BFB54892
:100E4000008910F0010FFAD0B2488089C0B2704713
:100E500000BF00235A1E1946AF48006803F0E9FEA0
:100E6000AE4800684FF46161B0FBF1F0AB498871A6
:100E7000084600684FF46161B0FBF1F201FB12001B
:100E80003C21B0FBF1F0A5494871084600683C21BF
:100E9000B0FBF1F201FB1200A04908718879A0496A
:100EA000FFF791FB9D4948799D49C91CFFF78BFBD2
:100EB0009A4908799A49891DFFF785FB00235A1E34
:100EC00019469848006803F0B4FED823944A52218A
:100ED000012000F0AFFE00231A4619469148006831
:100EE00003F0CCFDB5E700BF00235A1E19468E481B
:100EF000006803F09EFE8D480088C0108B49088072
:100F00008B498A480088FFF7F7FA00235A1E1946D2
:100F10008448006803F08DFED823854A6A21992011
:100F200000F088FE00231A4619467E48006803F048
:100F3000A5FD8048006840F480007E490860D3E742
:100F400000BF7D4880787C49497800EB01207B49CF
:100F50000880794800797849C97800EB0120774901
:100F60004880754880797449497900EB01207349BC
:100F700088807148407A7049097A00EB01207049F5
:100F800008806E480088801100EB400000F293302A
:100F90006C49088069484088801100EB400000F2ED
:100FA0009330091F0880CCE700BF6748007801280C
:100FB000FBD1664966480088FFF79EFA0020634926
:100FC00008710023421E19465648006803F031FE9E
:100FD000D8235E4A0121992000F02CFE00231A46F6
:100FE00019465048006803F049FD00205649087032
:100FF000DBE700BF00235A1E19465648006803F07D
:1010000018FE0E2003F0C7F83D48001F006840F0AE
:101010000E003B49091F086039480C38006840F051
:101020000E0037490C39086000235A1E19464948FA
:10103000006803F0FEFD46480088401C44490880D3
:10104000012041490870142003F0A5F82C480068DD
:1010500040F00E002A49086029480C38006840F02A
:101060000E0027490C390860C4E700BF3A48006801
:1010700040F02000384908602148006820F0100046
:101080001F490860081F006840F01000091F086031
:1010900042F21070810688858006008840F00100C9
:1010A000088000235A1E19462C48006803F0C1FD31
:1010B0002B4800883A2190FBF1F029490880234908
:1010C00027480088FFF718FA0020204908710023FC
:1010D000421E19461348006803F0ABFDD8231B4A93
:1010E0000121022000F0A6FD00231A4619460D48F2
:1010F000006803F0C3FC142003F04DF8B6E70000CD
:101100000C04014000100240007000400428004020
:101110000838004000300140740000201001002019
:101120001F00002078000020700000201600002022
:101130001800002008240140200100205600002053
:101140005C000020402C014048000020500000209E
:10115000460000207C000020100801408000002094
:101160002A0000208AB00A20FFF740FAFFF749FA68
:1011700003220021012003F0C5FBFE490860084658
:10118000006830B100231A461946FA48006803F097
:1011900075FC03220021012003F0B4FBF64908602E
:1011A0000846006830B100231A461946F248006824
:1011B00003F064FC03220021012003F0A3FBEF49AC
:1011C00008600846006830B100231A461946EB480B
:1011D000006803F053FC03220021012003F092FB7E
:1011E000E74908600846006830B100231A461946EE
:1011F000E348006803F042FC012003F0A4FCE1494D
:10120000086062B60F211220FFF766F90F21242033
:10121000FFF762F90F212620FFF75EF90F21072063
:10122000FFF75AF90F210820FFF756F90F2109207F
:10123000FFF752F90F210A20FFF74EF93021032062
:10124000FFF74AF90F211C20FFF746F9122000F0A2
:101250007EFA242000F07BFA262000F078FA07209E
:1012600000F075FA082000F072FA092000F06FFA19
:101270000A2000F06CFA032000F069FA1C2000F04C
:1012800066FAC148006840F48000BF49086000F079
:1012900094FA00F0ACFA002000F0C0FBBB4800F06C
:1012A00006FBBB490880BB4800F001FBBA49088037
:1012B000BA49002001F0D8FCB94940F20510FFF707
:1012C0001BF9B7480078B7494873B5484078887328
:1012D000B3488078C873B248C07808740122B24815
:1012E00001F0D5FCB1490870B14B3622B149AE4886
:1012F00001F07AFDAD490870AE4906A8FFF77FF806
:10130000AD4806A94EC94EC0AA496846FFF79EF8E7
:1013100028226946A94803F0FBFD582000F05DFA39
:1013200000241EE000250AE0A5484FF4C07202FB2D
:1013300005019F4B9C4801F057FD681CC5B2082D64
:10134000F2DBD8209E49621CD206CDE90010110EB6
:10135000E200521CD0B28123022200F0E6FA601CA7
:10136000C4B2142CDEDBD82000F037FA8E4801F02E
:1013700085FFD82193480068808981230222CDE926
:1013800000010A21012000F0A5FAD8218D4800684B
:10139000008A81230222CDE90001A021972000F0DC
:1013A00099FA0021084601F05FFC00200223CDE9F4
:1013B000003002900346782283A10390AFF26F5071
:1013C00002F07CFD00200223CDE9003002900346AC
:1013D00078227FA10390AFF2F14002F06FFD002070
:1013E0000223CDE9003002900346782279A10390D0
:1013F000AFF2B34002F062FD00200223CDE90030DD
:1014000002900346782276A10390AFF2634002F087
:1014100055FD00200223CDE90030029003467822DA
:1014200070A10390AFF2354002F048FD0020022386
:10143000CDE900300290034678226DA10390AFF20F
:10144000D53002F03BFD03F033F800BFFEE710B5E6
:101450004D480838006800F00200022828D14A48A8
:101460004430006865490988084464490880644834
:101470000078401C6249087008460078082817D197
:101480000020087000235F4A19463A48006803F0BC
:101490007EFB5A4800885C49088000205749088034
:1014A0003948006840F480003749086003F0FAF9D1
:1014B00010BD5648008810F0200F17D0544800780F
:1014C0000A280BDA5148001D00885249504A127808
:1014D00088544F480078401C4D4908704B48001D07
:1014E0000088412802D1012049490870704710B591
:1014F0004948006840F002004749086046481438EF
:10150000006820F00200444914390860081D006892
:1015100020F00200091D086000233A4A19461748C6
:10152000006803F034FB3D48008840F002003B496E
:10153000088010BD10B53848006840F004003649F6
:10154000086035481438006820F004003249143926
:101550000860081D006820F00400091D08600023D1
:10156000284A19460548006803F011FB2B480088FB
:1015700056E0000070000020740000207C00002075
:10158000800000207800002008240140201616006A
:101590008A000020FBAEC100880000202C01002042
:1015A0005000002030000020800500206000002056
:1015B0006C000020A4170020DC170020EC1700208E
:1015C000141800209400002054696D65000000008C
:1015D000414443004A6F79737469636B00000000F3
:1015E000535049004B6579626F61726400000000DE
:1015F000556C747261736F6E696300001400002093
:101600001D0000204C000020160000200044004077
:101610002800002020010020140401405E0000206A
:1016200040F004005049088010BD10B54F480068D4
:1016300040F008004D4908604C481438006820F01C
:1016400008004A4914390860081D006820F00800A5
:10165000091D08600023464A19464648006803F001
:1016600096FA4148008840F008003F49088010BDC4
:1016700010B53E48006840F010003C4908603B4807
:101680000C38006810F0100F17D04FF6FF700907E4
:1016900088850846008840F00100088033480C38EF
:1016A000006820F0100031490C390860081D0068FE
:1016B00040F01000091D086013E04FF08040808C5E
:1016C0002D4908804FF08040008820F001004FF045
:1016D000804108800023264A19462848006803F004
:1016E00056FA10BD10B52648008820F001002449A4
:1016F000088023481830008822490860084600689E
:101700001F491431098800EB01401E49086000237D
:10171000174A19461C48006803F039FA10BD4FF00B
:101720008040008A10F0010F10D01848006840F483
:101730000010164908608806008A20F0010089061A
:1017400008820846008820F001000880704700F0F9
:101750001F020121914042094FF0E02303EB820276
:10176000C2F80011704700005E0000201404014020
:101770004C0000207C0000202A0000208000002077
:1017800004280040100100207400002010080140CF
:101790004FF40012F84B1A6090FAA0F2D10D00BF7E
:1017A000F64A128812F0800FFAD0F44B1B1D1980F4
:1017B0004FF40012F04B1A60704710B54FF0805094
:1017C000EF4908603220FEF711FF4FF48050EC49DA
:1017D00008603220FEF70AFF10BD10B5044636201F
:1017E000FFF7D6FF44F48070FFF7D2FF10BD00B5BD
:1017F0000120FFF7CDFF1120FFF7CAFF1320FFF7ED
:10180000C7FF2020FFF7C4FF3820FFF7C1FFB0203B
:10181000FFF7BEFF4FF48870FFF7BAFFD820FFF73D
:10182000DCFF3A20FFF7B4FF40F20510FFF7B0FFEE
:101830002920FFF7ADFF00BD2DE9F04706460F4612
:1018400090469946DDF820A01AF0200F02D02A24F5
:101850002B2501E02B242A252046FFF799FF4FF482
:101860008070FFF795FF46F48070FFF791FF4FF40B
:101870008070FFF78DFF47F48070FFF789FF2846DF
:10188000FFF786FF4FF48070FFF782FF48F4807007
:10189000FFF77EFF4FF48070FFF77AFF49F4807006
:1018A000FFF776FF2C20FFF773FFBDE8F08730B518
:1018B0000146CBB2C1F30722C1F30744E02000EA9E
:1018C000C20040EAE40003F0F80545EA621540EA88
:1018D000052030BD2DE9F84704460D4616461F4643
:1018E000DDE9098A3B46324629462046CDF800A06C
:1018F000FFF7A2FF4FF001090DE04FF4807141EABC
:101900002820FFF745FF48F48070FFF741FF09F1F9
:1019100001001FFA80F9281B401CB91B491C4843D1
:10192000401C4845E9DCBDE8F8872DE9F84F07463B
:10193000884691469A460A9D0B9853464A46414628
:1019400000903846FFF778FF012421E0601E00EB8D
:101950004000295C601E00EB4000401C285C01EB4D
:101960000021601E00EB4000801C285C01EB004B56
:101970005846FFF79CFF06464FF4807141EA262047
:10198000FFF706FF46F48070FFF702FF601C84B289
:10199000A8EB0700401CAAEB0901491C4843401C66
:1019A000A042D3DCBDE8F88F2DE9F84F04460D4680
:1019B00016469946DDF828B00B980090F01DC3B28A
:1019C000F2B2E81DC1B2E8B2FFF736FF002721E00E
:1019D0004FF0000819E007EBC4006A49085C0121D8
:1019E00001FA08F1084201D0DA4600E0CA464FF495
:1019F000807141EA2A20FFF7CBFE4AF48070FFF79E
:101A0000C7FE08F1010000F0FF08B8F1080FE2DBA3
:101A1000781CC7B2082FDBDBBDE8F88F18B95A492C
:101A20005A4A116003E00021584A116000BF00BF0C
:101A3000704701465548006808B900207047534870
:101A400000684078884204DC50480068807888420A
:101A500001DA0020F2E74D480068C07810F0010F6D
:101A600004D04A4800684068C0B208E047480068AF
:101A70004068464A126852788A1A30F82200C0B28A
:101A8000DCE74248006808B9002070473F4800681A
:101A90000078FAE730B50346002500243B4800688B
:101AA00000B10BB9002030BD12E055B137480068D5
:101AB000C07810F0010F01D0012000E00220204486
:101AC000C4B21878FFF7B5FF05466019C4B25B1CB5
:101AD00018780028E9D12046E5E72DE9FF4F82B0CC
:101AE0000E46144629480068C07810F0010F04D053
:101AF000264800684068C0B208E024480068406892
:101B0000224909684978611A30F82100C5B21F4896
:101B1000006807781D480068C07810F0010F09D0F0
:101B20001A4800684078201A184909684968C9B2FB
:101B3000484309E015480068406814490968497835
:101B4000611A00EB8100408810490968896800EB40
:101B5000010B0E48006818B9002006B0BDE8F08FF0
:101B60000A4800684078A04204DC08480068807891
:101B7000A0420DDA0020F0E7100C014000380140CF
:101B800010080140045100089C5600088400002001
:101B9000059800907019401EC3B202983844401E48
:101BA000C1B232460298FFF747FE4FF00009C8461F
:101BB0003CE0002001902AE019F0070F01D11BF84A
:101BC00001AB1AF0800F02D03F49098801E03F497C
:101BD00009884FF4807242EA2120FFF7D9FD1AF0FC
:101BE000800F02D03849098801E03849098841F45A
:101BF0008070FFF7CDFD4FEA4A604FEA106A09F1A5
:101C0000010000F0FF090198401CC0B2019001984A
:101C1000A842D1DB2E480068C07810F0020F01D135
:101C20004FF0000908F1010000F0FF08B845C0DBE3
:101C3000284692E72DE9FC4705460C46164698468D
:101C40004FFA85F900272248006890F800A033E099
:101C50003278434621462846FFF73FFF07461B4898
:101C60000088CDE90008E019DFF864C0DCF800C0A6
:101C70009CF803C01CF0010F02D04FF0010C01E0F2
:101C80004FF0020C6044401EC3B2E019C2B205EB33
:101C90000A00401EC1B22846FFF71CFE0C4800682F
:101CA000C07810F0010F01D0012000E00220204494
:101CB000C4B2E019C4B2761C30780028C8D1A5EBB4
:101CC0000900C0B2BDE8FC878A000020880000201F
:101CD0008400002070B504462CB901F049FF064687
:101CE0000025284670BD0120FCE7014621B909B155
:101CF000012070471046FCE70120FAE72DE9F04289
:101D000004460D4616461F4644B92A463946304613
:101D100001F0D2FF81464046BDE8F0820420FBE797
:101D20002DE9F04204460D4616461F4644B92A46A0
:101D30003946304602F045F881464046BDE8F0821B
:101D40000420FBE710B503460C460BB9084610BD4E
:101D50000420FCE71A20704770B503460C4603E0E8
:101D600014F8015B03F8015B1500A2F10102F7D141
:101D700070BD30B5034601E003F8011B1400A2F169
:101D80000102F9D130BDF0B503461C460D460020D6
:101D900000BF1600A2F1010207D014F8017B15F86C
:101DA00001CBA7EB0C063000F3D0F0BD024600E0FB
:101DB000521C107810B110788842F9D11078704711
:101DC0002DE9F04104460D46E66AAE422FD0207957
:101DD00008B360780123324604F13001FFF7A0FF19
:101DE00010B10120BDE8F08100202071D4E9071076
:101DF0000844B0420FD9E7780AE0E0690644607809
:101E00000123324604F13001FFF78AFF781EC7B282
:101E1000012FF2DC00BF55B1607801232A4604F19E
:101E20003001FFF76BFF08B10120DBE7E56200201E
:101E3000D8E770B5044600212046FFF7C1FF0546EC
:101E4000002D58D1207803284ED1607900284BD03E
:101E50000020E0624FF40072002104F13000FFF72F
:101E600088FF552184F82E12AA2184F82F125221BE
:101E70003020015584F83110612184F8321041215D
:101E800084F83310722184F8141284F81512412159
:101E900084F81612612184F81712206984F8180258
:101EA0002069010A84F819122069010C84F81A12B9
:101EB0002069010E84F81B12E06884F81C02E068B7
:101EC000010A84F81D12E068010C84F81E12E06813
:101ED000010E84F81F126078012304F13001626959
:101EE000FFF71EFF00206071607800221146FFF7A7
:101EF00029FF00B10125284670BD0246891E906960
:101F0000801E884201D8002070479378906A01FBB8
:101F10000300F9E72DE9F04105460C46022C02D3F7
:101F2000A869A04202D80120BDE8F08128780128E4
:101F300004D002282CD003285AD13DE0274607EBD5
:101F40005707286A00EB57212846FFF739FF00B1F1
:101F50004EE0C7F3080105F1300010F801807F1C46
:101F6000286A00EB57212846FFF72AFF00B13FE01F
:101F7000C7F3080105F13000405C48EA002814F07E
:101F8000010F02D04FEA1810CEE7C8F30B00CBE7E1
:101F9000286A00EB14212846FFF712FF00B127E062
:101FA00040F2FF1000EA440105F130000E183078CD
:101FB000717840EA0120B7E7286A00EBD41128467F
:101FC000FFF7FEFE00B113E040F2FF1000EA8401CB
:101FD00005F130000E18F0780006B17840EA0140B3
:101FE000717840EA01203178084320F070409BE787
:101FF00000BF4FF0FF3097E72DE9F04705460E464A
:102000001746022E02D3A869B04202D84FF0020848
:102010008AE02878012804D0022841D003287DD105
:1020200054E0B14609EB5909286A00EB59212846CA
:10203000FFF7C6FE8046B8F1000F00D071E0C9F38B
:10204000080105F130000C1816F0010F04D0F9B2A8
:10205000207861F31F1000E0F8B2207009F1010947
:1020600001202871286A00EB59212846FFF7A8FEB5
:102070008046B8F1000F00D053E0C9F3080105F124
:1020800030000C1816F0010F02D0C7F3071005E05E
:10209000207800F0F000C7F303210843207040E0EF
:1020A000286A00EB16212846FFF78AFE8046B8F121
:1020B000000F00D035E040F2FF1000EA460105F1C4
:1020C00030000C182770380A60702AE0286A00EB8C
:1020D000D6112846FFF774FE8046B8F1000F00D0F5
:1020E0001FE040F2FF1000EA860105F130000C18F5
:1020F000E0780006A17840EA0140617840EA0120DA
:102100002178084300F0704007432770380A607058
:10211000380CA070380EE07003E0FFE74FF00208C3
:1021200000BF00BF012028714046BDE8F0872DE9BF
:10213000F04104460E46022E02D3A069B04201D8F7
:10214000022725E000271FE031462046FFF7E2FE88
:10215000054605B91BE0012D01D1022717E0681CD7
:1021600001D1012713E0002231462046FFF744FF4A
:10217000074607B10BE02069401C04D02069401CD1
:102180002061012060712E46A069B042DCD800BFFA
:102190003846BDE8F0812DE9F04704468946B9F19B
:1021A000000F06D1E76817B1A069B84211D801271E
:1021B0000FE049462046FFF7ADFE0646022E02D24A
:1021C0000120BDE8F087A069B04201D93046F8E7A8
:1021D0004F463D4600BF6D1CA069A84204D80225A9
:1021E000BD4201D90020ECE729462046FFF792FEC8
:1021F000064606B909E0701C01D0012E01D1304617
:10220000DFE7BD42E7D10020DBE700BF6FF070429F
:1022100029462046FFF7F0FE8046B8F1000F08D1AE
:10222000B9F1000F05D02A4649462046FFF7E4FEE3
:102230008046B8F1000F09D1E5602069401C0DD03F
:102240002069401E20610120607107E0B8F1010F94
:1022500002D14FF0FF3000E0012005462846B0E7EC
:102260002DE9F04104460E46E680A568012D03D015
:1022700020688069A84202D80220BDE8F0812DB90B
:1022800020680078032801D12068456A65B9E560B7
:1022900020680089B04201DC0220EEE72068406A35
:1022A00000EB1610206120E020688078070112E022
:1022B00029462068FFF72EFE0546681C01D1012043
:1022C000DBE7022D03D320688069A84201D80220F1
:1022D000D3E7F01B86B2BE42EADAE5602946206801
:1022E000FFF70BFE00EB161020612068303006F07F
:1022F0000F0100EB411060610020BEE72DE9F041C5
:102300000446884600BFE088401C86B20EB12069B2
:1023100010B90420BDE8F08116F00F0F6ED12069CE
:10232000401C2061E06828B920680089B04265DC63
:102330000420EFE720688078401E10EA161F5DD168
:10234000E1682068FFF7E6FD0546012D01D802206F
:10235000E0E7681C01D10120DCE720688069A84221
:1023600046D8B8F1000F01D10420D3E7E168206816
:10237000FFF711FF05460DB90720CBE7012D01D16D
:102380000220C7E7681C01D10120C3E700212068B3
:10239000FFF716FD08B10120BCE7216801F130000C
:1023A0004FF400720021FFF7E4FC29462068FFF794
:1023B000A4FD2168C862002710E00120216808718F
:1023C00000212068FFF7FCFC08B10120A2E720688B
:1023D000C06A401C2168C862781CC7B22068807837
:1023E000B842EADC2068C06AC01B2168C86200BF2E
:1023F000E56029462068FFF780FD2061E6802068BF
:10240000303006F00F0100EB41106061002081E7E1
:1024100010B502468C7ECB7E44EA03201378032B52
:1024200005D10C7D4B7D44EA032340EA034010BDF7
:1024300081760B0AC3760A0C02750B0E4375704742
:102440002DE9F041044600212046FFF709FF05462B
:1024500015B12846BDE8F08100BF21692068FFF76B
:10246000AFFC054605B116E0666937780FB904255B
:1024700011E0F07A10F0080F06D10B223046A16966
:10248000FFF781FC00B906E000212046FFF736FF88
:102490000546002DE1D000BF2846DBE72DE9F041DD
:1024A000044604251BE021692068FFF789FC0546E6
:1024B00005B117E067693E780EB9042512E0E52EF4
:1024C00006D02E2E04D0F87A10F0080F00D109E0C3
:1024D00000212046FFF712FF054605B102E0206902
:1024E0000028E0D100BF0DB1002020612846BDE8E2
:1024F000F0812DE9F041044600212046FFF7B0FEAF
:102500000546ADB900BF21692068FFF759FC0546B3
:1025100005B10CE060690678E52E00D006B906E04A
:1025200001212046FFF7EAFE0546002DEBD000BF53
:102530009DB921692068FFF743FC05466DB96769BD
:10254000202200213846FFF714FC0B223846A169EF
:10255000FFF702FC0120216808712846BDE8F081E0
:1025600070B50446E1882046FFF77AFE05465DB95E
:1025700021692068FFF724FC05462DB9E520616933
:102580000870012021680871284670BD2DE9F35FAD
:102590000198D0F8009001E009F1010999F80000D4
:1025A0002F28F9D099F800005C28F5D000988669AA
:1025B0000B2220213046FFF7DCFB00252F46AB46DF
:1025C0004FF0080A00BF58460BF1010B19F8004004
:1025D000202C03DD2F2C01D05C2C00D157E02E2CB9
:1025E00001D057450DD3BAF1080F01D12E2C02D0DE
:1025F0000620BDE8FC9F08274FF00B0AA806050E31
:10260000E1E7802C01DB45F00305812C01DB9F2CE9
:1026100003DDE02C20DBFC2C1EDC58460BF1010B0B
:1026200019F80080B8F1400F02DBB8F17E0F05DD2C
:10263000B8F1800F06DBB8F1FC0F03DCAAF1010052
:10264000B84201D80620D4E738467F1C34543846B7
:102650007F1C06F8008019E02146FEA0FFF7A6FBCC
:1026600008B10620C5E7412C04DB5A2C02DC45F0FA
:10267000020508E0612C06DB7A2C04DC45F001053C
:10268000A4F12000C4B238467F1C34549BE700BF3D
:1026900009EB0B0101980160202C01DC042000E013
:1026A000002004460FB90620A3E73078E52801D1C1
:1026B00005203070BAF1080F01D1A806050E05F00B
:1026C0000300012801D144F0100405F00C00042897
:1026D00001D144F00804F47200208AE7F0B5054601
:1026E0000B4603F109022F69002F40D06869067B71
:1026F00000210AE0445C202C00D108E0052C00D128
:10270000E52400BF02F8014B491C0829F2D300BFA1
:10271000077A202F0FD02E2702F8017B082107E02F
:10272000445C202C00D105E000BF02F8014B491C9D
:102730000B29F5D300BFC77A1F72C77F4FEA076C1A
:10274000877F4CEA074C477F4CEA072790F81CC06C
:1027500047EA0C071F6090F818C0477E4CEA07272D
:102760009F8090F816C0C77D4CEA0727DF800027BE
:102770001770F0BD2DE9F3410446019800782F2829
:1027800003D0019800785C2802D10198401C019088
:102790000020A06001980078202807D20021204660
:1027A000FFF75EFD05460020606129E000BF01A93A
:1027B0002046FFF7EBFE054605B120E02046FFF777
:1027C0003FFE0546A069C67A45B1042D00D016E04B
:1027D00000BF16F0040F00D1052510E016F0040F1D
:1027E00000D00CE06769F87A10F0100F01D10525D0
:1027F00005E039462068FFF70BFEA060D7E700BF71
:102800002846BDE8FC8170B504460D46607801237A
:102810002A4604F13001FFF771FA08B1032070BDB8
:1028200094F82E1294F82F0241EA0020A0F52A41D4
:10283000553901D00220F2E794F86900010694F8B6
:10284000680041EA004194F8670041EA002094F8EA
:102850006610084320F07F408249884201D1002061
:10286000DDE794F88500010694F8840041EA004110
:1028700094F8830041EA002094F88210084320F085
:102880007F407849884201D10020C8E70120C6E78F
:102890002DE9F74F88B008980068019001980078FA
:1028A00030380790079809280AD8019840783A28C4
:1028B00006D10198801C019008990198086001E0F8
:1028C00000200790002109980160079818B10B209B
:1028D0000BB0BDE8F08F6449079851F820400CB95F
:1028E0000C20F5E709980460207878B16078FFF74C
:1028F000FCF9804618F0010F08D10A9820B118F0B1
:10290000040F01D00A20E3E70020E1E70020207057
:10291000079860706078FFF7DDF9804618F0010FC6
:1029200001D00320D4E70A9820B118F0040F01D099
:102930000A20CDE74FF0000B59462046FFF763FF12
:10294000054600BF012D21D14FF0000ABAF1000F5A
:1029500003D0AAF1010000F0FF0A4FF4DF7000EB92
:102960000A1104F130000F18387978B1F87A0106AD
:10297000B87A41EA0041787A41EA0020397A40EA9F
:10298000010B59462046FFF73EFF0546032D01D1B6
:1029900001209DE70DB10D209AE73B20015D94F8E1
:1029A0003C0041EA0020B0F5007F01D00D208FE708
:1029B0004620015D94F8470041EA0029B9F1000F73
:1029C0000ED194F85700010694F8560041EA0041F0
:1029D00094F8550041EA002094F8541040EA0109A7
:1029E000C4F81C904020065DE670012E03D0022E34
:1029F00001D00D206CE709FB06F93D20005D06467D
:102A0000A07016B1701E304201D00D2060E7412049
:102A1000015D94F8420041EA00202081208910F0F5
:102A20000F0F01D00D2053E74320015D94F84400BF
:102A300041EA002006900698E0B994F85300010698
:102A400094F8520041EA004194F8510041EA002014
:102A50000CE00000222A2B2C3A3B3C3D3E3F5B5DC4
:102A60007C7F0000464154008C00002094F85010F8
:102A7000084306903E20015D94F83F0041EA0020A3
:102A80000290029808B90D2022E702984844218953
:102A900000EB11100590DDE90501814201D20D2006
:102AA00016E7DDE90510401AA178B0FBF1F00490BB
:102AB000049808B90D200BE7012540F6F67104983B
:102AC000884200D302254FF6F6710498884200D35D
:102AD00003250498801CA06105985844A0620298C0
:102AE00058442062032D16D1208908B10D20EFE64D
:102AF00094F85F00010694F85E0041EA004194F802
:102B00005D0041EA002094F85C1008436062A0690F
:102B10008000039014E0208908B90D20D8E6206ACF
:102B200048446062022D02D1A069400007E0A0691C
:102B300000F00100A16901EB410100EB510003909D
:102B4000E169039800F2FF10B1EB502F01D20D2084
:102B5000BEE64FF0FF3020610020E060032D5CD125
:102B6000607194F8601094F8610041EA00205844C4
:102B700060616078012304F130016269FFF7BEF8FB
:102B8000F0BB94F82E1294F82F0241EA0020A0F531
:102B90002A41553941D194F83300010694F83200A6
:102BA00041EA004194F8310041EA002094F83010E5
:102BB0000843FE49884230D194F81702010694F880
:102BC000160241EA004194F8150241EA002094F807
:102BD00014120843F64988421FD194F81F020106D7
:102BE00094F81E0241EA004194F81D0241EA0020D7
:102BF00094F81C120843E06094F81B02010600E000
:102C00000BE094F81A0241EA004194F8190241EAF3
:102C1000002094F81812084320612570E5480088C8
:102C2000401C80B2E3490880E0800020E06220710F
:102C300000BF4DE670B505462C46206838B12068C7
:102C4000007820B12068C088A188884201D009207E
:102C500070BD21684878FFF748F810F0010F01D0E7
:102C60000320F5E70020F3E70246012A01DB0B20F1
:102C70007047D14850F822300BB10020187009B1CC
:102C800000200870CC4840F822100020F0E72DE921
:102C9000F7438AB0054616461DB909200DB0BDE8B8
:102CA000F0830020286006F01F0626F0010203A929
:102CB0000BA8FFF7EDFD0746002F7CD1CDF824D0FF
:102CC00003A80B99FFF756FD0746089C0FB904B9F6
:102CD000062716F01C0F50D04FB1042F03D103A8C4
:102CE000FFF707FC074646F00806089C09E0E07A73
:102CF00010F0110F01D0072703E016F0040F00D0E9
:102D00000827002F38D116F0080F35D0FFF722F82A
:102D1000804684F80E804FEA1821E1734FEA18418B
:102D200021744FEA186161740020E072207700215D
:102D30006177A177E17721460398FFF769FB814628
:102D400000212046FFF774FB012003990871B9F1B7
:102D5000000F11D00398D0F82C8049460398FFF754
:102D6000E6F9074647B9A9F101000399C860414651
:102D70000398FFF725F807460EE06FB9E07A10F0E8
:102D8000100F01D0042707E016F0020F04D0E07AFC
:102D900010F0010F00D0072747B916F0080F01D037
:102DA00046F020060398C06AE8612C621FB9AE7134
:102DB0002146039800E015E0FFF72AFB2861E07F39
:102DC0000106A07F41EA0041607F41EA0020217FA7
:102DD0000843E8600020A860A86103982860039871
:102DE000C088A880384659E72DE9FF4F83B00446D4
:102DF00015469A46DDF810B00020CAF800002046BB
:102E0000FFF718FF0290029818B1029807B0BDE8CA
:102E1000F08FA07910F0800F01D00220F6E7A079A2
:102E200010F0010F01D10720F0E7D4E90210401A99
:102E300000900098854200D9009DB5E0A068C005CB
:102E4000C00D7DD120688078401EA16800EA512025
:102E500000F0FF09B9F1000F1DD1A06810B9206979
:102E6000019004E061692068FFF754F8019001982F
:102E7000022805D2A07940F08000A0710220C5E7A9
:102E80000198401C05D1A07940F08000A07101207C
:102E9000BCE70198606161692068FFF72EF806467B
:102EA0002EB9A07940F08000A0710220AEE74E4418
:102EB0004FEA5528B8F1000F2DD009EB0800216822
:102EC0008978884203D920688078A0EB09082168B6
:102ED000487808F0FF0332465946FEF70FFF28B145
:102EE000A07940F08000A07101208FE7A07910F058
:102EF000400F0DD0A069801B404509D2A169891BF4
:102F00000BEB41204FF4007204F12401FEF724FF83
:102F10004FEA48273EE0A069B04227D0A07910F0E0
:102F2000400F14D021684878012304F12401A269DC
:102F3000FEF7F6FE38B1A07940F08000A07100E005
:102F400015E0012062E7A07920F04000A07121681F
:102F500048780123324604F12401FEF7CFFE28B160
:102F6000A07940F08000A07101204FE7A661A06821
:102F7000C0F30800C0F50077AF4200D92F46A06823
:102F8000C0F3080204F1240011183A465846FEF72F
:102F9000E3FE00BFBB44A0683844A060DAF800003C
:102FA0003844CAF80000ED1B002D07E05252614181
:102FB00072724161900000208C0000207FF43EAFCF
:102FC000002023E72DE9FF4F83B0044615469B46BA
:102FD000049801900020CBF800002046FFF72AFE5D
:102FE0000290029818B1029807B0BDE8F08FA0795E
:102FF00010F0800F01D00220F6E7A07910F0020F48
:1030000001D10720F0E7E0682844E168884200D257
:103010000025CCE0A068C005C00D77D1206880787D
:10302000401EA16800EA512000F0FF0ABAF1000F2B
:103030002AD1A06858B9D4F81080B8F1000F0BD18C
:1030400000212068FFF7A7F88046206104E061694D
:103050002068FFF7A0F88046B8F1000F00D1A9E082
:10306000B8F1010F05D1A07940F08000A0710220D5
:10307000BAE718F1010005D1A07940F08000A071F5
:103080000120B1E7C4F81480A07910F0400F12D0ED
:1030900021684878012304F12401A269FEF740FE6B
:1030A00028B1A07940F08000A07101209CE7A079B0
:1030B00020F04000A07161692068FEF71EFF0646FF
:1030C0002EB9A07940F08000A07102208CE7564410
:1030D0004FEA5529B9F1000F2FD00AEB09002168FA
:1030E0008978884203D920688078A0EB0A09216892
:1030F000487809F0FF0332460199FEF711FE30B11E
:10310000A07940F08000A07101206DE72CE0A0695B
:10311000801B48450ED2A069801B019A02EB40211A
:103120004FF4007204F12400FEF716FEA07920F09F
:103130004000A0714FEA49272DE0A069B04212D0AB
:10314000D4E9020188420ED2216848780123324630
:1031500004F12401FEF7D2FD28B1A07940F08000EF
:10316000A071012040E7A661A068C0F30800C0F587
:103170000077AF4200D92F46A168C1F3080204F1DD
:10318000240150183A460199FEF7E6FDA07940F077
:103190004000A07100BF019838440190A0683844F5
:1031A000A060DBF800003844CBF80000ED1B002DD8
:1031B0007FF430AF00BFD4E90201884201D9A06892
:1031C000E060A07940F02000A07100200CE72DE91C
:1031D000F04104462046FFF72DFD0746002F4BD156
:1031E000A07910F0200F47D0A07910F0400F0FD039
:1031F00021684878012304F12401A269FEF790FDBB
:1032000010B10120BDE8F081A07920F04000A0714C
:10321000E1692068FEF7D4FD0746002F2CD1256A0E
:10322000E87A40F02000E872E0682877E068010A58
:103230006977E068010CA977E068010EE977284614
:103240002169FFF7F5F8FEF785FD0646AE75310AF0
:10325000E975310C2976310E69760020A8740021B9
:10326000E974A07920F02000A07101202168087184
:103270002068FEF7DEFD07463846C3E770B5044612
:103280002046FFF7A4FF05460DB900202060284620
:1032900070BD2DE9F04704460E462046FFF7CAFCF4
:1032A0008246BAF1000F02D05046BDE8F087A079FF
:1032B00010F0800F01D00220F7E7E068B04204D29E
:1032C000A07910F0020F00D1E668D4F808904FF012
:1032D0000008C4F80880002E77D020688078470264
:1032E000B9F1000F11D0701EB0FBF7F1A9F1010088
:1032F000B0FBF7F0814208D3A9F10100791E8843A1
:10330000A060A068361A656918E02569ADB900218A
:103310002068FEF740FF0546012D05D1A07940F059
:103320008000A0710220C0E7681C05D1A07940F0A0
:103330008000A0710120B8E725616561002D44D0AF
:1033400029E0A07910F0020F07D029462068FEF787
:1033500022FF054635B93E461FE029462068FEF7A4
:10336000D9FD0546681C05D1A07940F08000A07108
:1033700001209AE7012D03D920688069A84205D869
:10338000A07940F08000A07102208EE76561A068FE
:103390003844A060F61BBE42D3D800BFA0683044BA
:1033A000A060F005C00D10D029462068FEF7A5FDED
:1033B0008046B8F1000F06D1A07940F08000A071DE
:1033C000022072E701E008EB5628A068C005C00D96
:1033D0002AD0A069404527D0A07910F0400F12D024
:1033E00021684878012304F12401A269FEF798FCC2
:1033F00028B1A07940F08000A071012055E7A079A4
:1034000020F04000A071216848780123424604F171
:103410002401FEF773FC28B1A07940F08000A07170
:10342000012042E7C4F81880D4E90201884205D996
:10343000A068E060A07940F02000A071504634E719
:1034400073B584B0044614B9092006B070BD0022DB
:10345000214605A8FFF71CFA0546266825BB01A8EA
:10346000A06120460599FFF785F90546ADB9606969
:1034700058B16069C07A10F0100F05D0304661690C
:10348000FEF7C6FFA06000E0052535B9F088A080F2
:1034900000212046FEF7E4FE0546042D00D1052557
:1034A00025B10020206001E0002020602846CCE704
:1034B000FEB505460E462846FFF7BCFB044604BB96
:1034C0002EB900212846FEF7CBFE044619E0C5F8C8
:1034D00018D02846FEF7E2FF0446042C02D1002053
:1034E000286100246CB931462846FFF7F7F800211F
:1034F0002846FEF703FF0446042C02D10020286171
:1035000000242046FEBD33B58BB00D46002204A931
:103510000BA8FFF7BDF904467CB901A80A9004A8DE
:103520000B99FFF727F904463CB9099820B12946C1
:1035300004A8FFF7D3F800E0062420460DB030BD04
:103540002DE9F74F82B08B46002202A80499FFF7BD
:103550009FF9019004980468019800286ED1A06931
:10356000801E2169814203D82069CBF8000065E004
:1035700094F800A00026BAF1010F1CD1022700BF69
:1035800039462046FEF7C6FC804618F1010002D1FC
:10359000012001900EE0B8F1010F02D1022001904C
:1035A00008E0B8F1000F00D1761C781C0746A1692D
:1035B0008842E5D33AE0A769206A00904FF00009FD
:1035C000002500BFB9F1000F0ED10098421C014642
:1035D00020460092FEF7F4FB0190019800B124E030
:1035E00004F130054FF40079BAF1020F09D12878BF
:1035F000697850EA012000D1761CAD1CA9F10209BE
:1036000010E0E8780006A97840EA0140697840EACD
:1036100001202978084330F0704000D1761C2D1D20
:10362000A9F10409781E0700CCD100BF2661BAF1C8
:10363000030F01D101206071CBF80060019805B043
:10364000BDE8F08F70B504460CB9092070BD204666
:10365000FFF7F0FA054655B9A07910F0800F01D0B8
:10366000022504E0A07910F0020F00D10725002DFB
:1036700036D1D4E9021088422DD9A068E060A07943
:1036800040F02000A071A06838B921692068FEF7D9
:103690004EFD0546002020611DE061692068FEF7AF
:1036A00039FC06460025701C00D10125012E00D1F1
:1036B000022585B920688069B0420CD96FF070424C
:1036C00061692068FEF798FC054625B931462068F7
:1036D000FEF72DFD05461DB1A07940F08000A071D8
:1036E0002846B3E771B591B001220AA911A8FFF7E6
:1036F000CFF80446002C46D1CDF840D00AA8119945
:10370000FFF738F8044600BF002C3CD10F9E0EB9DD
:10371000062404E0F07A10F0010F00D007243146AF
:103720000A98FEF775FE0546E4B9F07A10F0100F1E
:1037300018D0022D01D2022414E01C220AA903A8E9
:10374000FEF70AFB0595022103A8FEF789FD044652
:1037500044B903A8FEF7A2FE044604B90724042CCA
:1037600000D100247CB90AA8FEF7FAFE044654B939
:1037700025B129460A98FEF7DAFC04461CB90A98D6
:10378000FEF757FB0446204612B070BD2DE9F14705
:103790008BB0FEF7DFFA0646012204A90BA8FFF75B
:1037A00077F80546002D6FD101A80A9004A80B995F
:1037B000FEF7E0FF054605B9082500BF042DF2D14C
:1037C00000210498FEF7E7FC0746002507B9072506
:1037D000012F00D10225781C00D1012525B9002137
:1037E0000498FEF7EDFA0546002D5CD139460498A1
:1037F000FEF783FB8146049800F130044FF4007219
:1038000000212046FEF7B5FA0B2220212046FEF7C4
:10381000B0FA2E2020701020E072A675310AE175F2
:10382000310C2176310E617639462046FEF700FED6
:103830002022214604F12000FEF78EFA2E2084F883
:103840002100DDF818A004980078032804D104981A
:10385000406A504500D1AA46514604F12000FEF7C7
:10386000E7FD049890F8028019E00498C0F82C90C5
:1038700009F1010901200499087100210498FEF75B
:103880009FFA05460DB10DE02DE04FF400720021C6
:103890002046FEF76EFAA8F1010000F0FF08B8F12B
:1038A000000FE2D100BF1DB904A8FEF722FE0546B5
:1038B00025B139460498FEF73AFC14E0099C102023
:1038C000E072A675310AE175310C2176310E617610
:1038D00039462046FEF7ACFD012004990871049892
:1038E000FEF7A7FA054628460CB0BDE8F087F7B505
:1038F0008AB00F461446012203A90AA8FEF7C8FFA2
:103900000646EEB9CDF824D003A80A99FEF732FF97
:10391000064600BFA6B9089D0DB9062610E004F0C2
:10392000270407EA0400E97AE243D2B211400843CF
:10393000E8720120039908710398FEF77AFA0646A7
:1039400030460DB0F0BD73B58AB00D46012203A913
:103950000AA8FEF79DFF0646EEB9CDF824D003A8CD
:103960000A99FEF707FF064600BFA6B9089C0CB9E6
:10397000062610E0E888A075E8880112E175A8889D
:103980002076A888011261760120039908710398B6
:10399000FEF74FFA064630460CB070BD2DE9F341F4
:1039A00098B00F46012211A918A8FEF771FF04462E
:1039B000002C79D111980A9001A8179011A8189994
:1039C000FEF7D8FE044600BF002C6DD1169808B94A
:1039D000042469E0169800F10B01152204A8FEF7F3
:1039E000BBF91C2211A90AA8FEF7B6F939460AA8A4
:1039F000FEF7C0FE044604B90824042C54D10AA8DA
:103A0000FEF777FD0446002C4ED10F9D13220DF1D9
:103A1000120105F10D00FEF79FF99DF8100040F02E
:103A20002000E8720120119908710C9913988842BE
:103A300030D0E87A10F0100F2CD029461198FEF7FC
:103A4000E7FC804641461198FEF757FA06460EB944
:103A500002241FE031461198FEF7B2F9044611988E
:103A600000F15005B4B968782E2813D11198007868
:103A7000032806D111990C98496A884201D1002087
:103A800000E00C98064631462846FEF7D1FC01209E
:103A90001199087144B911A8FEF762FD04461CB9DA
:103AA0001198FEF7C6F9044620461AB0BDE8F08129
:103AB0002DE9F04104460D464FF00008CD4800784E
:103AC00020B9112C01D0182C00D16D024FF080507C
:103AD000C949086044F04000FDF792F9280EFDF74F
:103AE0008FF9C5F30740FDF78BF9C5F30720FDF704
:103AF00087F9E8B2FDF784F9082C03D18720FDF798
:103B00007FF902E09520FDF77BF906E04046411C75
:103B100001F0FF08FE2800DD05E0FF20FDF770F949
:103B20000646FF28F2D000BFC6B93A2C16D1FF20B6
:103B3000FDF766F9074617F0400F03D00120AD49A5
:103B4000087002E00020AB490870FF20FDF758F92B
:103B5000FF20FDF755F9FF20FDF752F9FF20FDF793
:103B60004FF94FF48050A44908603046BDE8F08119
:103B70002DE9F04102270024002504E0FF20FDF795
:103B80003FF9681CC5B20A2DF8DB4FF080509A4906
:103B9000086007E02046611C8CB2202802DD01206D
:103BA000BDE8F08100210846FFF782FF0128F1D12E
:103BB000000391490860FF20FDF722F9FF20FDF77F
:103BC0001FF9002406E02046611C8CB2FE2801DDAE
:103BD000012706E04FF4D5710820FFF769FF01289F
:103BE000F1D100BF002400BF00213720FFF760FFA4
:103BF00006464FF080412920FFF75AFF0646601C19
:103C000084B240F6FE70844201DD0120C8E7002E38
:103C1000EAD10024002077490870022F0DD105E079
:103C20002046611C8CB2FE2800DD05E000213A2010
:103C3000FFF73EFF0028F3D100BF0020B0E770B5CA
:103C400006460C46002531461120FFF731FF08B12A
:103C5000012070BD4FF08050674908600CE0284695
:103C6000691C8DB24FF6FE71884205DD4FF480501D
:103C7000614908600120ECE7FF20FDF7C1F8FE284C
:103C8000EDD1002506E0FF20FDF7BAF804F8010B9E
:103C9000681C85B2B5F5007FF5DBFF20FDF7B0F8B5
:103CA000FF20FDF7ADF8FF20FDF7AAF84FF4805094
:103CB000514908600020CCE72DE9F04107460E4647
:103CC0001546A846002400BF09E04FF4007000FB31
:103CD000045838194146FFF7B2FF601CC4B2B44221
:103CE000F3DB0020BDE8F0812DE9F04107460C46EA
:103CF0004FF0000839461820FFF7DAFE10B1012016
:103D0000BDE8F0814FF080503B490860FE20FDF790
:103D100077F8002605E014F8010BFDF771F8701C28
:103D200086B2B6F5007FF6DBFF20FDF769F8FF20CD
:103D3000FDF766F8FF20FDF763F8054605F01F0064
:103D4000052805D04FF480502B4908600120D7E7A3
:103D50000DE04046411C1FFA81F84FF6FE71884283
:103D600005DD4FF48050244908600120C8E7FF209A
:103D7000FDF746F80028ECD04FF480501E4908604B
:103D8000FF20FDF73DF84FF080501B4908600DE023
:103D90004046411C1FFA81F84FF6FE71884205DD4E
:103DA0004FF48050144908600120A9E7FF20FDF777
:103DB00027F80028ECD04FF480500F49086000200D
:103DC0009EE72DE9F04107460E461546A846002419
:103DD00000BF09E04FF4007000FB04583819414659
:103DE000FFF782FF601CC4B2B442F3DB0020BDE8E1
:103DF000F0810000B8000020100C014010B5002434
:103E000007E004EB8401F74A02EB810000F0F1FFC8
:103E1000641C052CF5D3F44800F0EBFFF34800F0E8
:103E2000E8FFF34800F0E5FFF24800F0E2FFEE485B
:103E3000F1490860ED48F149086010BD2DE9F041F5
:103E400004460E4615469846069F1022314604F158
:103E5000340001F097F8002143200155052D00D3CF
:103E60000425E5626564201D00F0D0FF04F1180010
:103E700000F0CCFF2461C5F10500A0616462BDE8DB
:103E8000F08170B505460E46482000F055FC04460A
:103E900094B11EB9A80000F04FFC00E0304620634A
:103EA000206B20B9204600F0A8FC002404E0A90003
:103EB000A522206B01F05EF8204670BD2DE9FF4F72
:103EC00081B0804615469946DDE90E7A284610995C
:103ED000FFF7D7FF0446002C56D0681E216B01EB7C
:103EE000800B2BF0070B00953A462046119B029958
:103EF000FFF7A4FF4A464146584600F0A9FC20605F
:103F0000BAF1000F01D0CAF8004000F0D1FCBC4863
:103F10000068401CBA490860BA48006840B9B9480E
:103F200004600846006801280CD1FFF767FF09E02C
:103F3000B548006830B9B3480068C06AB84201D8D3
:103F4000B0480460B149E06A0968884202D9AF49C3
:103F5000E06A0860AE480068401CAD490860AD49A1
:103F6000E06A0968884202D9AA49E06A0860E16A01
:103F700001EB81019B4A02EB8100211D00F049FF0A
:103F8000012600F09EFC01E04FF0FF36012E09D122
:103F90009D48006830B19B480068C06AB84201D2B1
:103FA00000F080FC304605B0BDE8F08F70B59A484F
:103FB0000068002866D199480068401C974908604D
:103FC0000846006808BB8C4908688C4909688A4A19
:103FD00011608A49086092490968491C904A116039
:103FE00085490968096809B9012100E0002121B16A
:103FF0004FF0FF318B4A116006E07F490968C968BC
:10400000CC68884A6168116000BF844800688549AF
:104010000968884235D300BF77480068006808B94E
:10402000012000E0002020B14FF0FF307D49086002
:1040300026E071480068C068C46865687748006811
:10404000A84202D2774805601AE0201D00F009FF5F
:10405000A06A18B104F1180000F003FF6D49E06A8E
:104060000968884202D96B49E06A0860E16A01EB9D
:1040700081015C4A02EB8100211D00F0CAFECBE702
:1040800000BF04E068480068401C6749086070BDD4
:1040900070B5002500F00CFC5F480068401E5E49CA
:1040A00008600846006800284CD155480068002880
:1040B00048D0002621E04E48C068C46804F11800CA
:1040C00000F0CFFE201D00F0CCFE5249E06A0968E6
:1040D000884202D94F49E06A0860E16A01EB810138
:1040E000404A02EB8100211D00F093FE4549E06A41
:1040F0000968C96A884200D301263D48006808B9AA
:10410000012000E000200028D5D04748006860B1B9
:1041100006E0FFF74BFF44480068401E4249086034
:10412000414800680028F4D10126012E03D03F4801
:104130000068012805D1012500203C49086000F0F5
:10414000B1FB00BF00F0BDFB284670BD10B50446B2
:104150002C480068446031480068844207D22948EE
:104160000168091D2548006800F061FE0CE0254843
:104170000168091D2048006800F059FE29480068C0
:10418000844201D22748046010BD23480068401CC7
:1041900021490860704770B5044600267CB1FFF7DE
:1041A000F4FF1E480068051916480068001D00F05D
:1041B00058FE2846FFF7CAFFFFF76AFF06460EB90A
:1041C00000F070FB70BD70B5044600F071FB14B9CF
:1041D0000C48006800E020460646F56A00F071FBD6
:1041E000284670BD14240020782400208C24002050
:1041F000A0240020B4240020EC000020F0000020C7
:10420000C0000020BC000020D0000020C80000201A
:10421000E4000020CC000020D4000020C4000020D6
:10422000E0000020E8000020D8000020DC00002092
:104230002DE9F04106460D464FF00008052D00D34C
:10424000042500F035FBF8480068864200D10026BE
:1042500016B9F548006800E030460446676CAF4286
:1042600032D0BD4203D92EB14FF0010802E00EB9A1
:104270004FF00108E16A606C884200D1E562656434
:10428000C5F10500A06107EB8701E84A02EB810157
:104290006069884213D1201D00F0E3FDE449E06A23
:1042A0000968884202D9E249E06A0860E16A01EBE4
:1042B0008101DE4A02EB8100211D00F0AAFDB8F168
:1042C000010F01D100F0EEFA00F0FBFABDE8F08139
:1042D000D848006818B10120D749086025E004E0FB
:1042E000D3480068401ED2490860D148006800EBFE
:1042F0008000CE4951F820000028F1D0CC4909684F
:1043000001EB8101C94A02EB8100416849684160C3
:1043100000F1080142688A4202D14168496841605F
:104320004168C968C04A116000BF704770B5044653
:1043300000F0BEFABC480068844200D1002414B9E1
:10434000B948006800E020460546281D00F089FDB8
:10435000A86A18B105F1180000F083FD291DB748BF
:1043600000F057FD00F0ADFA8CB9B548006810B107
:1043700000F098FA0BE0B1480068B2490968884239
:1043800003D10020A849086001E0FFF7A1FF70BD3C
:1043900010B5014600200A46A84C5369A34201D13A
:1043A000012300E0002383B1A74C936AA34201D10B
:1043B000012300E00023012B07D0936A0BB90123EE
:1043C00000E00023012B00D1012010BD70B505468F
:1043D0002C4644B394480068844224D000F068FA24
:1043E0002046FFF7D5FF01281BD1201D00F039FD25
:1043F0008F49E06A0968884202D98D49E06A0860FD
:10440000E16A01EB8101894A02EB8100211D00F084
:1044100000FD8549E06A0968C96A884201D300F055
:1044200041FA00F04EFA70BD2DE9F0410546002634
:104430002C460027FBF7E2FE2046FFF7A9FF0128E4
:1044400026D17C480068F0B97749E06A0968C96AF2
:10445000884201D3012000E000200646201D00F024
:1044600000FD7349E06A0968884202D97049E06A30
:104470000860E16A01EB81016C4A02EB8100211DB9
:1044800000F0C7FC04E004F118016F4800F0C1FC23
:10449000FBF7BBFE3046BDE8F081704700BFFFF779
:1044A000FCFF624800680128F9D900F0FBF9F6E743
:1044B0001FB500200090019002900346782263A16E
:1044C00003906448FFF7FAFC0446012C09D1FBF77E
:1044D00095FE01205A49086000205F49086000F0FD
:1044E000CBF91FBD10B5FBF789FE002054490860C9
:1044F00000F0D7F910BD10B500F0DAF9564804689D
:1045000000F0DFF9204610BD70B50025FBF776FE00
:1045100051480468FBF779FE204670BD49480068A1
:10452000704770B506460C463F4801681831304662
:1045300000F07DFC3C480068001D00F092FC601C0F
:1045400006D139480168091D3C4800F062FC05E0CD
:104550004148006805192846FFF7F8FD70BD70B5A1
:104560000646F068C46804F1180000F07AFC31488F
:104570000068A0B9201D00F074FC2D49E06A0968AC
:10458000884202D92A49E06A0860E16A01EB8101A8
:10459000264A02EB8100211D00F03BFC04E004F1FF
:1045A0001801294800F035FC1F49E06A0968C96A0A
:1045B000884201D3012500E00025284670BD274927
:1045C00009680160244909684160704770B5044674
:1045D0000D4600F06DF92868401C01D100261FE04F
:1045E0001E4920680968884206D01B49606809682E
:1045F000884201D8012613E0174960680968081A43
:10460000296888420BD22868134A61681268511AD7
:10461000401A28602046FFF7D2FF002600E001265E
:1046200000F04FF9304670BDBC000020142400207B
:10463000CC000020D4000020DC000020B4240020A6
:10464000D0000020C0000020A024002049444C4598
:10465000000000009D440008C4000020E00000208D
:10466000012031490860704730490868704770B5CB
:1046700005462C462D49E06A0968C96A88422FD24E
:104680002A480068C06AC0F10500A061E16A01EB38
:104690008101274A02EB81016069884201D1012032
:1046A00000E00020C0B1201D00F0DBFB1F480068C7
:1046B000C06AE0621F49E06A0968884202D91D4960
:1046C000E06A0860E16A01EB8101194A02EB8100AE
:1046D000211D00F09EFB03E014480068C06AE06200
:1046E00070BD70B505462C46EDB1616CE06A88423C
:1046F00019D0201D00F0B5FB606CE062E06AC0F1EB
:104700000500A0610B49E06A0968884202D909499D
:10471000E06A0860E16A01EB8101054A02EB810071
:10472000211D00F076FB70BDDC000020BC000020E5
:1047300014240020CC0000202DE9F04104464FF065
:104740000008FFF722FD3D48006898B93C493D4A02
:104750001160002151604FF4A0513B4A516000218B
:10476000116037484FF4A0514160114601600120AB
:104770003249086044B1103414F0070F04D004F03B
:104780000700C0F108000444002C31D0B4F5A05F4C
:104790002ED22C4F3846056801E02F462D686868F8
:1047A000A04202D228680028F7D1274885421FD0AE
:1047B000386800F11008286838606868001B2028F5
:1047C00010D92E196868001B70606C6071681D48F4
:1047D00000E00068026852688A42FAD302683260D8
:1047E000066000BF194968680968081A1749086017
:1047F000FFF74EFC4046BDE8F08170B506463546F1
:10480000B6B1103D2C46FFF7C0FC61680D4800E0D2
:104810000068026852688A42FAD302682260046023
:104820000A4960680968084408490860FFF730FCD5
:1048300070BD06480068704770470000F80000200F
:10484000C8240020FC00002004010020F400002007
:10485000001F4FF080730360001F0160001F0023E2
:104860000360143802602038704723484FF0E0217D
:10487000486107200861704710B52048006840F47F
:104880007F001E4908600846006840F07F400860CD
:10489000FFF7EBFF00201A490860FBF787FC0020B8
:1048A00010BD70474FF0805014491C3908607047A4
:1048B00010B5FBF7A3FC12480068401C10490860C3
:1048C00010BD10B50E480068401E0D49086008462E
:1048D000006808B9FBF799FC10BD10B54FF0805087
:1048E00006491C3908600024FBF788FCFFF75EFBD3
:1048F000FBF78BFC10BD00003F7E050020ED00E0C3
:104900000C0100202DE9F04705460E4691464FF078
:1049100000084DB34C20FFF70FFF044624B305FBFE
:1049200006F0471C3846FFF707FF20602068E0B11B
:10493000206805FB060060600020A0632068A0607E
:10494000681E216800FB0610E060E56326644FF0F6
:10495000FF306064A06404F1100000F04AFA04F132
:10496000240000F046FAA04602E02046FFF745FF8B
:104970004046BDE8F08710B50446FFF799FF11E007
:10498000606A08B9012000E0002050B904F1240059
:10499000FFF7E5FD08B1FFF763FEA06C401EA064C1
:1049A00000E002E0A06C0028EADC00BF4FF0FF301E
:1049B000A064FFF786FFFFF77BFF11E0206908B9CD
:1049C000012000E0002050B904F11000FFF7C7FDFE
:1049D00008B1FFF745FE606C401E606400E002E035
:1049E000606C0028EADC00BF4FF0FF306064FFF726
:1049F00068FF10BD70B50446FFF75AFFA06BE16B6E
:104A0000884201D1012000E000200546FFF759FF50
:104A1000284670BD70B504460E461546206C38B960
:104A2000206838BB6068FFF75CFE0020606021E012
:104A30007DB93146226CA06800F025FA216CA0688F
:104A40000844A060D4E90110884213D32068A06014
:104A500010E03146226CE06800F015FA216CE06845
:104A6000401AE0602168E068884203D2216C6068E7
:104A7000401AE060A06B401CA06370BDFFB583B01E
:104A800004460E461D46002700BFFFF711FFA06B2E
:104A9000E16B884217D22A4631462046FFF7BAFF1B
:104AA000606A08B9012000E0002038B904F1240050
:104AB000FFF755FD012801D1FFF7F4FEFFF701FFD5
:104AC000012007B0F0BD059818B9FFF7FAFE0020E5
:104AD000F7E71FB901A8FFF772FD0127FFF7F1FE05
:104AE000FFF753FBFFF7E4FE606C401C00D16064ED
:104AF000A06C401C00D1A064FFF7E3FE05A901A84B
:104B0000FFF764FDC0B92046FFF774FF70B104F1F0
:104B100010000599FFF705FD2046FFF72CFFFFF772
:104B2000B7FA0028B1D1FFF7BDFEAEE72046FFF788
:104B300022FFFFF7ADFAA8E72046FFF71CFFFFF7BB
:104B4000A7FA0020BDE770B505464C20FFF7F4FD3D
:104B50000446D4B1002060602060A060E060A063E3
:104B60000120E06300202064401E6064A06404F122
:104B7000100000F03EF904F1240000F03AF900239F
:104B80001A4619462046FFF779FF204670BD2DE9E9
:104B9000F0470446884616461F464FF00009FBF7CB
:104BA0002DFBA06BE16B88421AD23A464146204663
:104BB000FFF730FFA06C401C0DD1606A08B90120DE
:104BC00000E0002050B904F12400FFF7C8FC28B130
:104BD0000120306002E0A06C401CA064012500E0D0
:104BE0000025FBF712FB2846BDE8F08770B50446A8
:104BF000FFF75EFEA06B08B9012000E0002005462B
:104C0000FFF75FFE284670BD70B504460D4620686C
:104C100070B1216CE0680844E0606168E068884237
:104C200001D32068E0602846226CE16800F02BF98F
:104C300070BD2DE9FF4182B004460F461D464FF07E
:104C4000000800BFFFF734FEA06B80B3E66839466A
:104C50002046FFF7D9FFB5B9A06B401EA0632068BE
:104C600010B9FFF701FD6060206908B9012000E07C
:104C70000020B0B904F11000FFF771FC012810D139
:104C8000FFF710FE0DE0E660606A08B9012000E061
:104C9000002030B904F12400FFF761FC08B1FFF7F0
:104CA00001FEFFF70EFE012006B0BDE8F081FFE730
:104CB000049818B9FFF705FE0020F5E7B8F1000FDA
:104CC00004D16846FFF77BFC4FF00108FFF7F9FDC0
:104CD000FFF75BFAFFF7ECFD606C401C00D16064ED
:104CE000A06C401C00D1A064FFF7EBFD04A968464E
:104CF000FFF76CFC08BB2046FFF778FFB8B12068CF
:104D000030B9FFF7D5FD6068FFF7B1FCFFF7D9FDBB
:104D100004F124000499FFF704FC2046FFF72BFE62
:104D2000FFF7B6F900288DD1FFF7BCFD8AE72046D2
:104D3000FFF721FEFFF7ACF984E72046FFF71BFEE3
:104D4000FFF7A6F90020AFE72DE9F04104460F4632
:104D500016464FF00008FBF751FAA06BE0B1394658
:104D60002046FFF751FFA06B401EA063606C401C03
:104D70000DD1206908B9012000E0002050B904F1EC
:104D80001000FFF7ECFB28B10120306002E0606CFE
:104D9000401C6064012500E00025FBF736FA284638
:104DA000BDE8F08170B50446FFF782FDA56BFFF703
:104DB00088FD284670BD0146886B704710B50446D3
:104DC0002068FFF71AFD2046FFF717FD10BD0146CA
:104DD0008A6B0AB9012200E00022104670470146A2
:104DE0008A6BCB6B9A4201D1012200E0002210466F
:104DF000704700F1080141604FF0FF31816000F120
:104E00000801C1600161002101607047002101615A
:104E10007047426853684B6043688B605368996081
:104E200051604160086103685B1C0360704710B506
:104E300002460B685C1C01D1106907E002F1080012
:104E400000E04068446824689C42FAD944684C6099
:104E50004C68A160886041600A611468641C146039
:104E600010BDD0E901329A60D0E901235A6001698E
:104E70004A68824201D182684A60002202610A685F
:104E8000521E0A607047032A40F2308010F0030C73
:104E900000F0158011F8013BBCF1020F624498BF8D
:104EA00011F801CB00F8013B38BF11F8013BA2F12A
:104EB000040298BF00F801CB38BF00F8013B11F0A5
:104EC000030300F02580083AC0F0088051F8043B45
:104ED000083A51F804CBA0E80810F5E7121D5CBFB2
:104EE00051F8043B40F8043BAFF30080D20724BFE5
:104EF00011F8013B11F801CB48BF11F8012B24BF79
:104F000000F8013B00F801CB48BF00F8012B7047C7
:104F100010B5203AC0F00B80B1E81850203AA0E854
:104F20001850B1E81850A0E81850BFF4F5AF5FEA88
:104F3000027C24BFB1E81850A0E8185044BF18C93B
:104F400018C0BDE810405FEA827C24BF51F8043BE2
:104F500040F8043B08BF7047D20728BF31F8023B36
:104F600048BF11F8012B28BF20F8023B48BF00F8CA
:104F7000012B704702F0FF0343EA032242EA024298
:104F800000F030B810B5044610F0030F08BF11F060
:104F9000030F40F015804FF0013E121FC0F20E804B
:104FA00051F8043BA3EB0E0C2CEA030C1CEACE1CBC
:104FB00008BF40F8043BF0D0A1F1040102F1040263
:104FC000521E08DB11F8013B002B00F8013BF7D122
:104FD000114600F005F8204610BD70477047704735
:104FE0004FF000020429C0F0128010F0030C00F012
:104FF0001B80CCF1040CBCF1020F18BF00F8012B90
:10500000A8BF20F8022BA1EB0C0100F00DB85FEA5D
:10501000C17C24BF00F8012B00F8012B48BF00F829
:10502000012B70474FF0000200B513469446964698
:10503000203922BFA0E80C50A0E80C50B1F12001AB
:10504000BFF4F7AF090728BFA0E80C5048BF0CC059
:105050005DF804EB890028BF40F8042B08BF7047B7
:1050600048BF20F8022B11F0804F18BF00F8012B29
:105070007047754600F028F8AE460500694653466D
:1050800020F00700854618B020B5FBF7D3F8BDE83F
:1050900020404FF000064FF000074FF000084FF09F
:1050A000000B21F00701AC46ACE8C009ACE8C00930
:1050B000ACE8C009ACE8C0098D4670470446AFF3C0
:1050C00000802046FBF75BF800487047C838002096
:1050D00000487047CC38002001491820ABBEFEE7DD
:1050E00026000200704710B5FFF7F2FF4FF00001F5
:1050F000016010BD303132333435363738394142F2
:10510000434445463C4291959981423C5050F88930
:105110008A7224183C5AA5DBDBA55A3C2A2AFF8157
:10512000C1FF2A2A66DB8181C3422418247E9FBFE7
:10513000FF7E3C187E4242427E00FFFF00FFC3A577
:105140009981FF00193AE8CBC8EA391818185A991A
:105150009999423C3C24FFFFC3C3FFFF181818185D
:10516000FF7E3C18183C7EFF181818183C4299BD69
:10517000BD81423C1834281866D5AB661899DB7E91
:105180003C1818183064C9DADAC964300000183CD9
:105190003C1800005254F899AA72A41800000000AC
:1051A00000029408B80077EBFAEDC002BFFFB880A8
:1051B000011DFFB880213E4211C023BFF711C0037B
:1051C000BFFFB800FFF718EFFF0105F11000095B02
:1051D000F610001848C949807462E238800119F657
:1051E000100062929CEC60011DB71000431CF73167
:1051F00000119DE7184023BE4FB8805294A501408E
:105200007F7AD294A03A08A20B80003FFFFFE023F0
:10521000BE4FB89F23BE42108021084FB8800000C7
:105220000000000111F410000421F000000015F549
:105230000000011DFF80000001FFB8800000000099
:10524000002108420080529400000052BEAFA940E5
:1052500023E8E2F880C644444C6064A88AC9A0618F
:105260001000000011108410404104211100028937
:10527000F228000109F2100000000611000001F000
:1052800000000000003180004444400074675CC5A9
:10529000C023084211C074422223E0F88820C5C010
:1052A00011952F8840FC3C10C5C03221E8C5C0F8DC
:1052B000444421007462E8C5C07462F08980031818
:1052C00006300003180611000888820820003E0FEF
:1052D0008000820822220074422200807442DAD5C3
:1052E000C074631FC620F463E8C7C074610845C07A
:1052F000E4A318CB80FC21E843E0FC21C842007401
:105300006109C5C08C63F8C62071084211C0388499
:105310002149808CA98A4A2084210843E08EEB1819
:10532000C6208C7359C620746318C5C0F463E84264
:105330000074631AC9A0F463EA4A207C20E087C0A5
:10534000F9084210808C6318C5C08C6318A8808C43
:10535000635AEE208C544546208C54421080F84409
:105360004443E039084210E00410410400E10842DF
:10537000138022A200000000000003E041040000AE
:1053800000001C17C5E0842D98C7C0001D0845C04B
:10539000085B38C5E0001D1FC1C03251C4210000A8
:1053A0001F1784C0842D98C62020184211C0100CED
:1053B0002149804212A6292061084211C000355AB5
:1053C000C620002D98C620001D18C5C0003D1F42F4
:1053D00000001B378420002D984200001D0707C0E5
:1053E00042388424C0002318CDA0002318A88000D0
:1053F000231AD5400022A22A2000231785C0003E90
:105400002223E01108821040210842108041082226
:105410001100022A200000FC6318C7E0E214D4A5A2
:1054200040113E94238000000308801100E4210015
:1054300000000DA64000000002A027C842108027EF
:10544000C8427C8032788E24C08C888814A065295C
:105450006AD6C0110C000000A529EAD6C015632E3B
:105460004A20E210A6A5208C6318FC804710E4A413
:1054700040110C00000061100000004CB60000005C
:10548000DA6400000003BFFFB8000000E000000085
:1054900001F000007442220080F9091DD620001995
:1054A0004B56C0411800000000294F56C011214C36
:1054B00052404710A6A520002318FC8000000000E1
:1054C000005123151110028915111038842D69809F
:1054D000002AA554000FD0842380210802108032B6
:1054E00008A2098057E1E843E0746F9CDE2E7479CE
:1054F00008C5C001132490000001F080000001F0F5
:105500000000747BBEEE2E57C84213E0729C000070
:1055100000011C40380071084211C020184211C01F
:105520000005E421000023BAC2007D6AD294A000E5
:1055300000400000501D1FC1C018E12D5A40001D41
:105540000E45C0012499100000984251007C20E0D3
:1055500087C0001D0707C050184211C074631FC6E2
:1055600020F421E8C7C0F463E8C7C0FC210842006A
:105570003294A57E20FC21E843E0AD6AE756A07492
:105580004260C5C08C675CC620AC675CC6208CA935
:105590008A4A20325294A6208EEB18C6208C63F8DB
:1055A000C620746318C5C0FC6318C620F463E842C3
:1055B0000074610845C0F9084210808C62F0C5C0D3
:1055C000756B5AB8808C5445462094A52978208C58
:1055D000631F8420AD6B5AD7E0AD6B5AFC20C21C10
:1055E00094A5C08C7B5AD7A0843D18C7C074427064
:1055F000C5C0BD6BDAD6E07C62F2A620001C17C5E0
:10560000E013A1E8C5C000392F47C0003F084200A1
:10561000000CA57E20001D1FC1C0002AEAD6A000F4
:105620001D1345C000233AE62051233AE62000230B
:105630002E4A20000E94A7200023BAC62000231F64
:10564000C620001D18C5C0003F18C620003D1F42DF
:1056500000001D1845C0003E42108000231785C081
:10566000001D5AB8800022A22A2000252978200097
:105670002318BC20002B5AD7E0002B5AFC20003006
:10568000E4A5C00023D9CFA00021E8C7C0001D13A6
:10569000C5C0002D9CE6C0001F17A6200800FF0310
:1056A000050000009C5100083CE7821096B500F808
:1056B00079CE694A15FE821015FE821007FCFFFFA5
:1056C000FFFF0000FFFF0000FFFF0000FFFF0000E2
:1056D000FFFF00000000FFFF57494E300057494EC2
:1056E00031000000045700080000002010010000F5
:1056F000280100081458000810010020183E00007E
:105700004401000800127A000000000000000000C0
:1057100001020304060708090000000030303030A1
:1057200000000030303A30303A303000FF00FFFFE8
:1057300014180020303A313238783136302F696D04
:1057400067303030312E626D7000000000000000C4
:105750000000000000000000000000000000000049
:105760000000000000000000000000000000000039
:105770000000000000000000000000000000000029
:105780000000000000000000000000000000000019
:105790000000000000000000A85600080000000003
:1057A00000020000B4000020D856000800020000EB
:1057B000B6000020DD5600080000000000000000D8
:1057C00000000000000000000000000000000000D9
:1057D00000000000000000000000000000000000C9
:1057E000000000000000000000000000FFFFFFFFBD
:1057F0000000000000000000001400000000000095
:105800000000000000000000000000000000000098
:04581000AAAAAAAAEC
:04000005080000ED02
:00000001FF
