:020000040800F2
:1000000078060020C1010008C9010008CB010008E2
:10001000CD010008CF010008D10100080000000058
:10002000000000000000000000000000D3010008F4
:10003000D501000800000000D7010008D901000820
:10004000DB010008DB010008DB010008DB01000820
:10005000DB010008DB010008DB010008DB01000810
:10006000DB010008DB010008DB010008DB01000800
:10007000DB010008DB010008DB010008DB010008F0
:10008000DB010008DB010008DB01000800000000C4
:10009000000000000000000000000000DB0100087C
:1000A000DB010008DB010008DB010008DB010008C0
:1000B000DB010008DB01000800000000DB01000894
:1000C000DB0100080000000000000000DB01000868
:1000D00000000000DB010008DB0100080000000058
:1000E000DB010008DB010008DB0100080000000064
:1000F0000000000000000000000000000000000000
:1001000000000000000000000000000000000000EF
:100110000000000000000000DB010008DB01000817
:1001200000F002F800F03CF80AA090E8000C8244CD
:100130008344AAF10107DA4501D100F031F8AFF2AA
:10014000090EBAE80F0013F0010F18BFFB1A43F0B5
:10015000010318475405000074050000103A24BF3D
:1001600078C878C1FAD8520724BF30C830C144BF1C
:1001700004680C607047000000230024002500265E
:10018000103A28BF78C1FBD8520728BF30C148BFFA
:100190000B6070471FB500F080FA1FBD10B510BD91
:1001A00000F041FA1146FFF7F5FF00F00CFA00F0FD
:1001B0005FFA03B4FFF7F2FF03BC00F067FA000038
:1001C0000948804709480047FEE7FEE7FEE7FEE7EB
:1001D000FEE7FEE7FEE7FEE7FEE7FEE70448054927
:1001E000054A064B704700009502000821010008EF
:1001F0007800002078060020780200207802002095
:1002000000210020584A126842F48032564B1A608E
:1002100000BF554A126802F40030491C10B9B1F50C
:10022000A06FF6D1504A126812F4003F01D00120AD
:1002300000E00020012828D14C4A126842F0100248
:100240004A4B1A601A46126822F003021A601A46D4
:1002500012681A60444A5268434B5A601A46526800
:100260005A601A4652685A601A46526822F00302CF
:100270005A601A46526842F001025A6000BF3A4A78
:10028000526802F00C02042AF9D1704710B5FFF74A
:10029000B7FF10BD10B53448006840F00100324986
:1002A000086008464068324908402F4948600846BF
:1002B0000068304908402C4908600846006820F46E
:1002C000802008600846406820F4FE0048604FF433
:1002D0001F008860FFF7DAFF10BD10B50021002075
:1002E0000022214B5B6803F00C0121B1042906D0E8
:1002F000082928D107E0204B204C236027E01E4B23
:100300001E4C236023E0184B5B6803F47010164BFF
:100310005B6803F48032022303EB904022B9184B50
:100320004343164C23600DE00F4B5B6813F4003F12
:1003300004D0134B4343114C236003E00E4B434363
:100340000E4C236003E00C4B0C4C236000BF00BF3D
:10035000054B5B68C3F303130A4CE15C074B1B6856
:10036000CB40064C236010BD00100240002002402C
:100370000000FFF8FFFFF6FE00127A0000000020E8
:1003800000093D00040000209F4905E001E000BF96
:10039000491E0029FBD1401E0028F7D170479B4819
:1003A000806940F00C00994988619948006820F400
:1003B0004000974908600846006840F40010086053
:1003C0000846006820F4402008600846006840F4B1
:1003D000003008600846006820F440400860084685
:1003E000006840F4005008600846006820F0704043
:1003F00008600846006840F060400860844810309B
:10040000006840F080008249103108608048006830
:1004100020F070607E4908600846006840F0606027
:1004200008607B481030006840F040007849103187
:1004300008607648C06940F400107449C861754886
:10044000008820F03F00734908800846008840F08B
:10045000080008806F48183000886FF30B006D4962
:10046000183108800846008840F0500008800920B4
:10047000091D08806748001F008840F00100654999
:10048000091F08806248001D006820F07040604924
:10049000091D08600846006840F0005008605C488C
:1004A0001030006840F00040594910310860584849
:1004B000001D006820F070605549091D086008465D
:1004C000006840F00070086051481030006840F04B
:1004D00080404F49103108604D48001D006820F4ED
:1004E00070004B49091D08600846006840F4001080
:1004F000086047481030006840F00050444910310F
:1005000008604348001D006820F470204049091D20
:1005100008600846006840F4003008603C4810302D
:10052000006840F080503A49103108603A4800684D
:1005300020F47040384908600846006840F40050D4
:10054000086035480C30006840F0006032490C31DA
:1005500008603148006820F470602F490860084640
:10056000006840F4007008602B480C30006840F0D0
:10057000806029490C3108602748006820F0F000AD
:10058000254908600846006840F0200008602248BD
:100590000C30006840F000701F490C3108601E48A4
:1005A000006820F00F001C4908600846006840F011
:1005B0000200086018480C30006840F0807016494E
:1005C0000C310860704742F21070FFF7DDFEFFF754
:1005D000E6FE12480E491031086000110E490C3138
:1005E000086010E04FF470400949103108600011B4
:1005F00009490C3108604FF41660FFF7C5FE4FF44F
:100600001660FFF7C1FEEDE740190100001002403F
:10061000000C0140045400400408014000A00050B8
:10062000704770477047754600F028F8AE460500E1
:100630006946534620F00700854618B020B5FFF7FD
:10064000CDFDBDE820404FF000064FF000074FF011
:1006500000084FF0000B21F00701AC46ACE8C009E0
:10066000ACE8C009ACE8C009ACE8C0098D467047E9
:100670000446AFF300802046FFF79BFD004870471B
:10068000140000200048704718000020014918207D
:10069000ABBEFEE726000200704710B5FFF7F2FF81
:1006A0004FF00001016010BDC806000800000020E6
:1006B000140000005C010008DC06000814000020A3
:1006C000640600007801000800127A0000000000B3
:0C06D000000000000102030406070809F6
:0400000508000121CD
:00000001FF
