:020000040800F2
:1000000078060020C1010008C9010008CB010008E2
:10001000CD010008CF010008D10100080000000058
:10002000000000000000000000000000D3010008F4
:10003000D501000800000000D7010008D901000820
:10004000DB010008DB010008DB010008DB01000820
:10005000DB010008DB010008DB010008DB01000810
:10006000DB010008DB010008DB010008DB01000800
:10007000DB010008DB010008DB010008DB010008F0
:10008000DB010008DB010008DB01000800000000C4
:10009000000000000000000000000000DB0100087C
:1000A000DB010008DB010008DB010008DB010008C0
:1000B000DB010008DB01000800000000DB01000894
:1000C000DB0100080000000000000000DB01000868
:1000D00000000000DB010008DB0100080000000058
:1000E000DB010008DB010008DB0100080000000064
:1000F0000000000000000000000000000000000000
:1001000000000000000000000000000000000000EF
:100110000000000000000000DB010008DB01000817
:1001200000F002F800F03CF80AA090E8000C8244CD
:100130008344AAF10107DA4501D100F031F8AFF2AA
:10014000090EBAE80F0013F0010F18BFFB1A43F0B5
:10015000010318472C0300004C030000103A24BF91
:1001600078C878C1FAD8520724BF30C830C144BF1C
:1001700004680C607047000000230024002500265E
:10018000103A28BF78C1FBD8520728BF30C148BFFA
:100190000B6070471FB500F06CF91FBD10B510BDA6
:1001A00000F02DF91146FFF7F5FF00F00AF900F015
:1001B0004BF903B4FFF7F2FF03BC00F053F9000062
:1001C0000948804709480047FEE7FEE7FEE7FEE7EB
:1001D000FEE7FEE7FEE7FEE7FEE7FEE70448054927
:1001E000054A064B704700009502000821010008EF
:1001F0007800002078060020780200207802002095
:1002000000210020584A126842F48032564B1A608E
:1002100000BF554A126802F40030491C10B9B1F50C
:10022000A06FF6D1504A126812F4003F01D00120AD
:1002300000E00020012828D14C4A126842F0100248
:100240004A4B1A601A46126822F003021A601A46D4
:1002500012681A60444A5268434B5A601A46526800
:100260005A601A4652685A601A46526822F00302CF
:100270005A601A46526842F001025A6000BF3A4A78
:10028000526802F00C02042AF9D1704710B5FFF74A
:10029000B7FF10BD10B53448006840F00100324986
:1002A000086008464068324908402F4948600846BF
:1002B0000068304908402C4908600846006820F46E
:1002C000802008600846406820F4FE0048604FF433
:1002D0001F008860FFF7DAFF10BD10B50021002075
:1002E0000022214B5B6803F00C0121B1042906D0E8
:1002F000082928D107E0204B204C236027E01E4B23
:100300001E4C236023E0184B5B6803F47010164BFF
:100310005B6803F48032022303EB904022B9184B50
:100320004343164C23600DE00F4B5B6813F4003F12
:1003300004D0134B4343114C236003E00E4B434363
:100340000E4C236003E00C4B0C4C236000BF00BF3D
:10035000054B5B68C3F303130A4CE15C074B1B6856
:10036000CB40064C236010BD00100240002002402C
:100370000000FFF8FFFFF6FE00127A0000000020E8
:1003800000093D0004000020184905E001E000BF1D
:10039000491E0029FBD1401E0028F7D170471448A0
:1003A000806940F00C00124988611248006820F40E
:1003B0004000104908600846006840F400100860DA
:1003C0007047FFF7ECFF10E04FF4001009491031BF
:1003D00008604FF41660FFF7D7FF20200549103161
:1003E00008604FF41660FFF7CFFFEDE740190100FA
:1003F00000100240000C014070477047704775467E
:1004000000F028F8AE4605006946534620F0070084
:10041000854618B020B5FFF7E1FEBDE820404FF05B
:1004200000064FF000074FF000084FF0000B21F0DE
:100430000701AC46ACE8C009ACE8C009ACE8C009AB
:10044000ACE8C0098D4670470446AFF300802046F3
:10045000FFF7AFFE004870471400002000487047C7
:100460001800002001491820ABBEFEE7260002005C
:10047000704710B5FFF7F2FF4FF00001016010BDAB
:10048000A004000800000020140000005C01000827
:10049000B40400081400002064060000780100087D
:1004A00000127A00000000000000000001020304B6
:0404B000060708092A
:0400000508000121CD
:00000001FF
