:020000040800F2
:10000000D80300207101000875010008770100087D
:10001000790100087B0100087D0100080000000054
:100020000000000000000000000000007F01000848
:10003000810100080000000083010008AD030008F2
:100040008701000887010008870100088701000870
:100050008701000887010008870100088701000860
:100060008701000887010008870100088701000850
:100070008701000887010008870100088701000840
:100080008701000887010008870100088701000830
:100090008701000887010008870100088701000820
:1000A0008701000887010008870100088701000810
:1000B0008701000887010008870100088701000800
:1000C00087010008870100088701000887010008F0
:1000D00087010008870100088701000887010008E0
:1000E00087010008870100088701000800F002F876
:1000F00000F02EF80AA090E8000C82448344AAF194
:100100000107DA4501D100F023F8AFF2090EBAE891
:100110000F0013F0010F18BFFB1A43F0010318473B
:100120007003000080030000002300240025002647
:10013000103A28BF78C1FBD8520728BF30C148BF4A
:100140000B6070471FB500F09CF91FBD10B510BDC6
:1001500000F05DF91146FFF7F5FF00F044F800F0FC
:100160007BF903B4FFF7F2FF03BC00F083F9000052
:1001700008480047FEE7FEE7FEE7FEE7FEE7FEE78A
:10018000FEE7FEE7FEE7FEE703480449024A044BA8
:1001900070470000ED000008D8010020D8030020BF
:1001A000D801002010B54FF40020184908608000E5
:1001B000174908600A21174800F061F810BD10B512
:1001C0000820124908602020114908603221AFF24E
:1001D0002B0000F054F810BD10B56421AFF20700F9
:1001E00000F04DF810BD00F0E7F800F016F800F050
:1001F000D5F8AFF2350000F029F8AFF2230000F097
:1002000025F801E000F074F8FCE700001008014058
:10021000100C0140BF0100087047002005E0AFF25C
:1002200007015C4A42F82010401C1F28F7D100202B
:1002300009E0AFF21B01584A42F83010002102EBEE
:10024000C0025160401C1F28F3D1704701460020B6
:1002500072B671B605E0401C1F2802D162B661B6C5
:1002600070474C4A52F82020AFF253039A42F2D121
:10027000484A42F8201062B661B600BFF0E730B5D8
:1002800002460020002372B671B6002015E0424CF1
:1002900054F83040944206D13F4C04EBC0046160F6
:1002A00062B661B630BD3C4C54F83040AFF29705B1
:1002B000AC4201D103B90346401C1F28E7D10020FE
:1002C00010E0354C54F83040AFF2B305AC4208D1E1
:1002D000314C44F8302004EBC004616062B661B672
:1002E000E0E7401C1F28ECD162B661B600BFD9E739
:1002F00070B50024AFF2DF0572B671B62548056807
:10030000AFF2EB00854204D162B661B6FFF784FF1D
:1003100011E0002406E01F49601C51F8200041F85C
:100320002400641C1E2CF6D1AFF213101949886703
:1003300062B661B6A84770BD10B572B671B600243A
:1003400023E0154850F83400AFF23311884200D151
:100350001AE0114800EBC4004068012809D00E489B
:1003600000EBC4004068401E0B4901EBC40148602B
:1003700009E0094951F83400FFF768FFAFF2671050
:10038000054941F8340000BF641C1F2CD9D162B666
:1003900061B610BD000000207C00002005484FF031
:1003A000E0214861886107200861704710B5FFF7B8
:1003B000C3FF10BD401901001048806940F00C00D7
:1003C0000E4988610846406840F0806048600C48EB
:1003D000006820F440400A4908600846006840F47C
:1003E000805008600748006820F440000549086014
:1003F0000846006840F48010086070470010024012
:1004000000080140000C0140704770477047754676
:1004100000F028F8AE4605006946534620F0070074
:10042000854618B020B5FFF7AFFEBDE820404FF07D
:1004300000064FF000074FF000084FF0000B21F0CE
:100440000701AC46ACE8C009ACE8C009ACE8C0099B
:10045000ACE8C0098D4670470446AFF300802046E3
:10046000FFF77FFE00487047740100200048704786
:100470007801002001491820ABBEFEE726000200EB
:10048000704710B5FFF7F2FF4FF00001016010BD9B
:10049000A004000800000020D80300002801000884
:04000005080000ED02
:00000001FF
